{
  "_format": "hh-sol-artifact-1",
  "contractName": "ClaimRouter",
  "sourceName": "contracts/ClaimRouter.sol",
  "abi": [
    {
      "inputs": [
        {
          "internalType": "address",
          "name": "_treasury",
          "type": "address"
        }
      ],
      "stateMutability": "nonpayable",
      "type": "constructor"
    },
    {
      "inputs": [
        {
          "internalType": "address",
          "name": "distributor",
          "type": "address"
        },
        {
          "internalType": "address",
          "name": "token",
          "type": "address"
        }
      ],
      "name": "ClaimFailed",
      "type": "error"
    },
    {
      "inputs": [
        {
          "internalType": "address",
          "name": "distributor",
          "type": "address"
        }
      ],
      "name": "DistributorNotAllowed",
      "type": "error"
    },
    {
      "inputs": [],
      "name": "EmptyRewardTokens",
      "type": "error"
    },
    {
      "inputs": [],
      "name": "EnforcedPause",
      "type": "error"
    },
    {
      "inputs": [],
      "name": "ExpectedPause",
      "type": "error"
    },
    {
      "inputs": [
        {
          "internalType": "address",
          "name": "token",
          "type": "address"
        },
        {
          "internalType": "uint256",
          "name": "requested",
          "type": "uint256"
        },
        {
          "internalType": "uint256",
          "name": "available",
          "type": "uint256"
        }
      ],
      "name": "InsufficientRebateBalance",
      "type": "error"
    },
    {
      "inputs": [
        {
          "internalType": "address",
          "name": "distributor",
          "type": "address"
        }
      ],
      "name": "InvalidDistributor",
      "type": "error"
    },
    {
      "inputs": [
        {
          "internalType": "address",
          "name": "owner",
          "type": "address"
        }
      ],
      "name": "OwnableInvalidOwner",
      "type": "error"
    },
    {
      "inputs": [
        {
          "internalType": "address",
          "name": "account",
          "type": "address"
        }
      ],
      "name": "OwnableUnauthorizedAccount",
      "type": "error"
    },
    {
      "inputs": [],
      "name": "ReentrancyGuardReentrantCall",
      "type": "error"
    },
    {
      "inputs": [
        {
          "internalType": "address",
          "name": "token",
          "type": "address"
        }
      ],
      "name": "SafeERC20FailedOperation",
      "type": "error"
    },
    {
      "inputs": [
        {
          "internalType": "uint256",
          "name": "requested",
          "type": "uint256"
        },
        {
          "internalType": "uint256",
          "name": "maximum",
          "type": "uint256"
        }
      ],
      "name": "TaxTooHigh",
      "type": "error"
    },
    {
      "inputs": [],
      "name": "ZeroAddress",
      "type": "error"
    },
    {
      "anonymous": false,
      "inputs": [
        {
          "indexed": true,
          "internalType": "address",
          "name": "user",
          "type": "address"
        },
        {
          "indexed": true,
          "internalType": "address",
          "name": "distributor",
          "type": "address"
        },
        {
          "indexed": true,
          "internalType": "address",
          "name": "token",
          "type": "address"
        },
        {
          "indexed": false,
          "internalType": "uint256",
          "name": "grossAmount",
          "type": "uint256"
        },
        {
          "indexed": false,
          "internalType": "uint256",
          "name": "taxAmount",
          "type": "uint256"
        }
      ],
      "name": "Claimed",
      "type": "event"
    },
    {
      "anonymous": false,
      "inputs": [
        {
          "indexed": true,
          "internalType": "address",
          "name": "distributor",
          "type": "address"
        },
        {
          "indexed": false,
          "internalType": "bool",
          "name": "allowed",
          "type": "bool"
        }
      ],
      "name": "DistributorUpdated",
      "type": "event"
    },
    {
      "anonymous": false,
      "inputs": [
        {
          "indexed": true,
          "internalType": "address",
          "name": "previousOwner",
          "type": "address"
        },
        {
          "indexed": true,
          "internalType": "address",
          "name": "newOwner",
          "type": "address"
        }
      ],
      "name": "OwnershipTransferred",
      "type": "event"
    },
    {
      "anonymous": false,
      "inputs": [
        {
          "indexed": false,
          "internalType": "address",
          "name": "account",
          "type": "address"
        }
      ],
      "name": "Paused",
      "type": "event"
    },
    {
      "anonymous": false,
      "inputs": [
        {
          "indexed": true,
          "internalType": "address",
          "name": "token",
          "type": "address"
        },
        {
          "indexed": false,
          "internalType": "uint256",
          "name": "amount",
          "type": "uint256"
        }
      ],
      "name": "RebateWithdrawn",
      "type": "event"
    },
    {
      "anonymous": false,
      "inputs": [
        {
          "indexed": false,
          "internalType": "uint256",
          "name": "oldTaxBps",
          "type": "uint256"
        },
        {
          "indexed": false,
          "internalType": "uint256",
          "name": "newTaxBps",
          "type": "uint256"
        }
      ],
      "name": "TaxUpdated",
      "type": "event"
    },
    {
      "anonymous": false,
      "inputs": [
        {
          "indexed": false,
          "internalType": "address",
          "name": "account",
          "type": "address"
        }
      ],
      "name": "Unpaused",
      "type": "event"
    },
    {
      "inputs": [],
      "name": "MAX_TAX_BPS",
      "outputs": [
        {
          "internalType": "uint256",
          "name": "",
          "type": "uint256"
        }
      ],
      "stateMutability": "view",
      "type": "function"
    },
    {
      "inputs": [
        {
          "internalType": "address",
          "name": "",
          "type": "address"
        }
      ],
      "name": "allowedDistributors",
      "outputs": [
        {
          "internalType": "bool",
          "name": "",
          "type": "bool"
        }
      ],
      "stateMutability": "view",
      "type": "function"
    },
    {
      "inputs": [
        {
          "internalType": "address",
          "name": "distributor",
          "type": "address"
        },
        {
          "internalType": "address[]",
          "name": "rewardTokens",
          "type": "address[]"
        }
      ],
      "name": "claimFromClanker",
      "outputs": [],
      "stateMutability": "nonpayable",
      "type": "function"
    },
    {
      "inputs": [],
      "name": "claimTaxBps",
      "outputs": [
        {
          "internalType": "uint256",
          "name": "",
          "type": "uint256"
        }
      ],
      "stateMutability": "view",
      "type": "function"
    },
    {
      "inputs": [],
      "name": "owner",
      "outputs": [
        {
          "internalType": "address",
          "name": "",
          "type": "address"
        }
      ],
      "stateMutability": "view",
      "type": "function"
    },
    {
      "inputs": [],
      "name": "pause",
      "outputs": [],
      "stateMutability": "nonpayable",
      "type": "function"
    },
    {
      "inputs": [],
      "name": "paused",
      "outputs": [
        {
          "internalType": "bool",
          "name": "",
          "type": "bool"
        }
      ],
      "stateMutability": "view",
      "type": "function"
    },
    {
      "inputs": [],
      "name": "renounceOwnership",
      "outputs": [],
      "stateMutability": "nonpayable",
      "type": "function"
    },
    {
      "inputs": [
        {
          "internalType": "uint256",
          "name": "newTaxBps",
          "type": "uint256"
        }
      ],
      "name": "setClaimTax",
      "outputs": [],
      "stateMutability": "nonpayable",
      "type": "function"
    },
    {
      "inputs": [
        {
          "internalType": "address",
          "name": "distributor",
          "type": "address"
        },
        {
          "internalType": "bool",
          "name": "allowed",
          "type": "bool"
        }
      ],
      "name": "setDistributor",
      "outputs": [],
      "stateMutability": "nonpayable",
      "type": "function"
    },
    {
      "inputs": [
        {
          "internalType": "address",
          "name": "newOwner",
          "type": "address"
        }
      ],
      "name": "transferOwnership",
      "outputs": [],
      "stateMutability": "nonpayable",
      "type": "function"
    },
    {
      "inputs": [],
      "name": "treasury",
      "outputs": [
        {
          "internalType": "address",
          "name": "",
          "type": "address"
        }
      ],
      "stateMutability": "view",
      "type": "function"
    },
    {
      "inputs": [],
      "name": "unpause",
      "outputs": [],
      "stateMutability": "nonpayable",
      "type": "function"
    },
    {
      "inputs": [
        {
          "internalType": "address",
          "name": "token",
          "type": "address"
        },
        {
          "internalType": "uint256",
          "name": "amount",
          "type": "uint256"
        }
      ],
      "name": "withdrawRebateReserve",
      "outputs": [],
      "stateMutability": "nonpayable",
      "type": "function"
    }
  ],
  "bytecode": "0x60a0346100ef57601f610cad38819003918201601f19168301916001600160401b038311848410176100f4578084926020946040528339810103126100ef57516001600160a01b038082168083036100ef5733156100d6576000543360018060a01b0319821617600055604051923391167f8be0079c531659141344cd1fd0a4f28419497f9722a3daafe3b4186f6b6457e0600080a36001805561012c600355156100c75750608052604051610ba2908161010b823960805181818161056801526108900152f35b63d92e233d60e01b8152600490fd5b604051631e4fbdf760e01b815260006004820152602490fd5b600080fd5b634e487b7160e01b600052604160045260246000fdfe6080604052600436101561001257600080fd5b60003560e01c806303d7bda7146109a857806323ec8c21146109695780632c597de91461094c5780633f4ba83a146108e25780635c975abb146108bf57806361d027b31461087a578063715018a6146108215780638456cb59146107c75780638da5cb5b1461079e578063a107807d14610780578063c0ec9fb01461032d578063d59ba0df14610295578063defb51bd146101495763f2fde38b146100b657600080fd5b34610144576020366003190112610144576100cf610a26565b6100d7610a6b565b6001600160a01b0390811690811561012b57600054826bffffffffffffffffffffffff60a01b821617600055167f8be0079c531659141344cd1fd0a4f28419497f9722a3daafe3b4186f6b6457e0600080a3005b604051631e4fbdf760e01b815260006004820152602490fd5b600080fd5b3461014457604036600319011261014457610162610a26565b60243561016d610a6b565b6040516370a0823160e01b81523060048201526001600160a01b03928316926020918281602481885afa9081156102895760009161025c575b50808411610238575060005460405163a9059cbb60e01b848201529116602482015260448082018490528152916080830167ffffffffffffffff811184821017610222577fdd417e56cd9a20f9b3cc7de6c01058b00ddb83a837e39d7353fea03f28dc487e936102199160405285610b10565b604051908152a2005b634e487b7160e01b600052604160045260246000fd5b84606491856040519263190b924760e21b8452600484015260248301526044820152fd5b90508281813d8311610282575b6102738183610a3c565b810103126101445751856101a6565b503d610269565b6040513d6000823e3d90fd5b34610144576040366003190112610144576102ae610a26565b60243590811515809203610144576102c4610a6b565b6001600160a01b031690811561031b5760207f19e1fee2e38695e60ad3ef8c81759c22d6d7ee56f9b8805363820a50da468a18918360005260048252604060002060ff1981541660ff8316179055604051908152a2005b60405163d92e233d60e01b8152600490fd5b3461014457604036600319011261014457610346610a26565b67ffffffffffffffff60243511610144573660236024350112156101445767ffffffffffffffff60243560040135116101445736602480356004013560051b81350101116101445760026001541461076e5760026001556103a5610a97565b602435600401351561075c5733320361071f576001600160a01b03811660009081526004602052604090205460ff16156106fd57803b156106db576003549060005b6024356004013581106103fa5760018055005b60248035600583901b0101356001600160a01b0381169003610144576040516370a0823160e01b81523360048201526020816024818135600587901b018201356001600160a01b03165afa908115610289576000916106a9575b506040516310e059a160e11b6020820190815233602480840191909152600585901b81350101356001600160a01b031660448084019190915282526000918291906104a0606482610a3c565b519082875af13d156106a4573d67ffffffffffffffff811161022257604051906104d4601f8201601f191660200183610a3c565b8152600060203d92013e5b15610669576040516370a0823160e01b8152336004820152906020826024818135600588901b018201356001600160a01b03165afa91821561028957600092610635575b508082111561062b5761053591610a5e565b905b8115610622578184810204840361060c57816127108560019402046105b881851c61059f6105658285610a5e565b917f000000000000000000000000000000000000000000000000000000000000000033898060a01b0360248a60051b813501013516610ab5565b3033878060a01b0360248860051b813501013516610ab5565b6040519182526020820152828060a01b0360248360051b81350101351690838060a01b038516907f2442e7ccfd30564dcfd95cc7cfdaefdfc6298925b0c609461d5c69ca18ab181260403392a45b016103e7565b634e487b7160e01b600052601160045260246000fd5b60019150610606565b5050600090610537565b9091506020813d602011610661575b8161065160209383610a3c565b8101031261014457519085610523565b3d9150610644565b5060405163149e8f5f60e21b81526001600160a01b0392831660048201526024803560059390931b9290920182013590921690820152604490fd5b6104df565b90506020813d6020116106d3575b816106c460209383610a3c565b81010312610144575184610454565b3d91506106b7565b60405163073f87b560e21b81526001600160a01b039091166004820152602490fd5b604051630c4a255f60e31b81526001600160a01b039091166004820152602490fd5b60405162461bcd60e51b815260206004820152601560248201527410dbdb9d1c9858dd1cc81b9bdd08185b1b1bddd959605a1b6044820152606490fd5b60405163cfaf194b60e01b8152600490fd5b604051633ee5aeb560e01b8152600490fd5b34610144576000366003190112610144576020600354604051908152f35b34610144576000366003190112610144576000546040516001600160a01b039091168152602090f35b34610144576000366003190112610144576107e0610a6b565b6107e8610a97565b600160ff1960025416176002557f62e78cea01bee320cd4e420270b5ea74000d11b0c9f74754ebdbfc544b05a2586020604051338152a1005b346101445760003660031901126101445761083a610a6b565b600080546001600160a01b0319811682556001600160a01b03167f8be0079c531659141344cd1fd0a4f28419497f9722a3daafe3b4186f6b6457e08280a3005b34610144576000366003190112610144576040517f00000000000000000000000000000000000000000000000000000000000000006001600160a01b03168152602090f35b3461014457600036600319011261014457602060ff600254166040519015158152f35b34610144576000366003190112610144576108fb610a6b565b60025460ff81161561093a5760ff19166002557f5db9ee0a495bf2e6ff9c91a7834c1ba4fdd244a5e8aa4e537bd38aeae4b073aa6020604051338152a1005b604051638dfc202b60e01b8152600490fd5b346101445760003660031901126101445760206040516101f48152f35b34610144576020366003190112610144576001600160a01b0361098a610a26565b166000526004602052602060ff604060002054166040519015158152f35b34610144576020366003190112610144576004356109c4610a6b565b6101f4808211610a07577fb841faf0d1b32571f4ef966a2f35e3ae51f3cdda45318c3da5570a5b2ad85605604083600354908060035582519182526020820152a1005b6040516358e4a91360e01b815260048101929092526024820152604490fd5b600435906001600160a01b038216820361014457565b90601f8019910116810190811067ffffffffffffffff82111761022257604052565b9190820391821161060c57565b6000546001600160a01b03163303610a7f57565b60405163118cdaa760e01b8152336004820152602490fd5b60ff60025416610aa357565b60405163d93c066560e01b8152600490fd5b6040516323b872dd60e01b60208201526001600160a01b03928316602482015292909116604483015260648083019390935291815260a081019181831067ffffffffffffffff84111761022257610b0e92604052610b10565b565b906000602091828151910182855af115610289576000513d610b6357506001600160a01b0381163b155b610b415750565b604051635274afe760e01b81526001600160a01b039091166004820152602490fd5b60011415610b3a56fea2646970667358221220fa982d615ed887337a30914efba458a9898f30a7e2384f9827137dcf8878f63064736f6c63430008180033",
  "linkReferences": {},
  "deployedLinkReferences": {}
}