{"contracts/ClaimRouter.sol":{"ClaimRouter":{"abi":[{"inputs":[{"internalType":"address","name":"_treasury","type":"address"}],"stateMutability":"nonpayable","type":"constructor"},{"inputs":[{"internalType":"address","name":"distributor","type":"address"},{"internalType":"address","name":"token","type":"address"}],"name":"ClaimFailed","type":"error"},{"inputs":[{"internalType":"address","name":"distributor","type":"address"}],"name":"DistributorNotAllowed","type":"error"},{"inputs":[],"name":"EmptyRewardTokens","type":"error"},{"inputs":[],"name":"EnforcedPause","type":"error"},{"inputs":[],"name":"ExpectedPause","type":"error"},{"inputs":[{"internalType":"address","name":"token","type":"address"},{"internalType":"uint256","name":"requested","type":"uint256"},{"internalType":"uint256","name":"available","type":"uint256"}],"name":"InsufficientRebateBalance","type":"error"},{"inputs":[{"internalType":"address","name":"distributor","type":"address"}],"name":"InvalidDistributor","type":"error"},{"inputs":[{"internalType":"address","name":"owner","type":"address"}],"name":"OwnableInvalidOwner","type":"error"},{"inputs":[{"internalType":"address","name":"account","type":"address"}],"name":"OwnableUnauthorizedAccount","type":"error"},{"inputs":[],"name":"ReentrancyGuardReentrantCall","type":"error"},{"inputs":[{"internalType":"address","name":"token","type":"address"}],"name":"SafeERC20FailedOperation","type":"error"},{"inputs":[{"internalType":"uint256","name":"requested","type":"uint256"},{"internalType":"uint256","name":"maximum","type":"uint256"}],"name":"TaxTooHigh","type":"error"},{"inputs":[],"name":"ZeroAddress","type":"error"},{"anonymous":false,"inputs":[{"indexed":true,"internalType":"address","name":"user","type":"address"},{"indexed":true,"internalType":"address","name":"distributor","type":"address"},{"indexed":true,"internalType":"address","name":"token","type":"address"},{"indexed":false,"internalType":"uint256","name":"grossAmount","type":"uint256"},{"indexed":false,"internalType":"uint256","name":"taxAmount","type":"uint256"}],"name":"Claimed","type":"event"},{"anonymous":false,"inputs":[{"indexed":true,"internalType":"address","name":"distributor","type":"address"},{"indexed":false,"internalType":"bool","name":"allowed","type":"bool"}],"name":"DistributorUpdated","type":"event"},{"anonymous":false,"inputs":[{"indexed":true,"internalType":"address","name":"previousOwner","type":"address"},{"indexed":true,"internalType":"address","name":"newOwner","type":"address"}],"name":"OwnershipTransferred","type":"event"},{"anonymous":false,"inputs":[{"indexed":false,"internalType":"address","name":"account","type":"address"}],"name":"Paused","type":"event"},{"anonymous":false,"inputs":[{"indexed":true,"internalType":"address","name":"token","type":"address"},{"indexed":false,"internalType":"uint256","name":"amount","type":"uint256"}],"name":"RebateWithdrawn","type":"event"},{"anonymous":false,"inputs":[{"indexed":false,"internalType":"uint256","name":"oldTaxBps","type":"uint256"},{"indexed":false,"internalType":"uint256","name":"newTaxBps","type":"uint256"}],"name":"TaxUpdated","type":"event"},{"anonymous":false,"inputs":[{"indexed":false,"internalType":"address","name":"account","type":"address"}],"name":"Unpaused","type":"event"},{"inputs":[],"name":"MAX_TAX_BPS","outputs":[{"internalType":"uint256","name":"","type":"uint256"}],"stateMutability":"view","type":"function"},{"inputs":[{"internalType":"address","name":"","type":"address"}],"name":"allowedDistributors","outputs":[{"internalType":"bool","name":"","type":"bool"}],"stateMutability":"view","type":"function"},{"inputs":[{"internalType":"address","name":"distributor","type":"address"},{"internalType":"address[]","name":"rewardTokens","type":"address[]"}],"name":"claimFromClanker","outputs":[],"stateMutability":"nonpayable","type":"function"},{"inputs":[],"name":"claimTaxBps","outputs":[{"internalType":"uint256","name":"","type":"uint256"}],"stateMutability":"view","type":"function"},{"inputs":[],"name":"owner","outputs":[{"internalType":"address","name":"","type":"address"}],"stateMutability":"view","type":"function"},{"inputs":[],"name":"pause","outputs":[],"stateMutability":"nonpayable","type":"function"},{"inputs":[],"name":"paused","outputs":[{"internalType":"bool","name":"","type":"bool"}],"stateMutability":"view","type":"function"},{"inputs":[],"name":"renounceOwnership","outputs":[],"stateMutability":"nonpayable","type":"function"},{"inputs":[{"internalType":"uint256","name":"newTaxBps","type":"uint256"}],"name":"setClaimTax","outputs":[],"stateMutability":"nonpayable","type":"function"},{"inputs":[{"internalType":"address","name":"distributor","type":"address"},{"internalType":"bool","name":"allowed","type":"bool"}],"name":"setDistributor","outputs":[],"stateMutability":"nonpayable","type":"function"},{"inputs":[{"internalType":"address","name":"newOwner","type":"address"}],"name":"transferOwnership","outputs":[],"stateMutability":"nonpayable","type":"function"},{"inputs":[],"name":"treasury","outputs":[{"internalType":"address","name":"","type":"address"}],"stateMutability":"view","type":"function"},{"inputs":[],"name":"unpause","outputs":[],"stateMutability":"nonpayable","type":"function"},{"inputs":[{"internalType":"address","name":"token","type":"address"},{"internalType":"uint256","name":"amount","type":"uint256"}],"name":"withdrawRebateReserve","outputs":[],"stateMutability":"nonpayable","type":"function"}],"evm":{"bytecode":{"linkReferences":{},"object":"60a0346100ef57601f610cad38819003918201601f19168301916001600160401b038311848410176100f4578084926020946040528339810103126100ef57516001600160a01b038082168083036100ef5733156100d6576000543360018060a01b0319821617600055604051923391167f8be0079c531659141344cd1fd0a4f28419497f9722a3daafe3b4186f6b6457e0600080a36001805561012c600355156100c75750608052604051610ba2908161010b823960805181818161056801526108900152f35b63d92e233d60e01b8152600490fd5b604051631e4fbdf760e01b815260006004820152602490fd5b600080fd5b634e487b7160e01b600052604160045260246000fdfe6080604052600436101561001257600080fd5b60003560e01c806303d7bda7146109a857806323ec8c21146109695780632c597de91461094c5780633f4ba83a146108e25780635c975abb146108bf57806361d027b31461087a578063715018a6146108215780638456cb59146107c75780638da5cb5b1461079e578063a107807d14610780578063c0ec9fb01461032d578063d59ba0df14610295578063defb51bd146101495763f2fde38b146100b657600080fd5b34610144576020366003190112610144576100cf610a26565b6100d7610a6b565b6001600160a01b0390811690811561012b57600054826bffffffffffffffffffffffff60a01b821617600055167f8be0079c531659141344cd1fd0a4f28419497f9722a3daafe3b4186f6b6457e0600080a3005b604051631e4fbdf760e01b815260006004820152602490fd5b600080fd5b3461014457604036600319011261014457610162610a26565b60243561016d610a6b565b6040516370a0823160e01b81523060048201526001600160a01b03928316926020918281602481885afa9081156102895760009161025c575b50808411610238575060005460405163a9059cbb60e01b848201529116602482015260448082018490528152916080830167ffffffffffffffff811184821017610222577fdd417e56cd9a20f9b3cc7de6c01058b00ddb83a837e39d7353fea03f28dc487e936102199160405285610b10565b604051908152a2005b634e487b7160e01b600052604160045260246000fd5b84606491856040519263190b924760e21b8452600484015260248301526044820152fd5b90508281813d8311610282575b6102738183610a3c565b810103126101445751856101a6565b503d610269565b6040513d6000823e3d90fd5b34610144576040366003190112610144576102ae610a26565b60243590811515809203610144576102c4610a6b565b6001600160a01b031690811561031b5760207f19e1fee2e38695e60ad3ef8c81759c22d6d7ee56f9b8805363820a50da468a18918360005260048252604060002060ff1981541660ff8316179055604051908152a2005b60405163d92e233d60e01b8152600490fd5b3461014457604036600319011261014457610346610a26565b67ffffffffffffffff60243511610144573660236024350112156101445767ffffffffffffffff60243560040135116101445736602480356004013560051b81350101116101445760026001541461076e5760026001556103a5610a97565b602435600401351561075c5733320361071f576001600160a01b03811660009081526004602052604090205460ff16156106fd57803b156106db576003549060005b6024356004013581106103fa5760018055005b60248035600583901b0101356001600160a01b0381169003610144576040516370a0823160e01b81523360048201526020816024818135600587901b018201356001600160a01b03165afa908115610289576000916106a9575b506040516310e059a160e11b6020820190815233602480840191909152600585901b81350101356001600160a01b031660448084019190915282526000918291906104a0606482610a3c565b519082875af13d156106a4573d67ffffffffffffffff811161022257604051906104d4601f8201601f191660200183610a3c565b8152600060203d92013e5b15610669576040516370a0823160e01b8152336004820152906020826024818135600588901b018201356001600160a01b03165afa91821561028957600092610635575b508082111561062b5761053591610a5e565b905b8115610622578184810204840361060c57816127108560019402046105b881851c61059f6105658285610a5e565b917f000000000000000000000000000000000000000000000000000000000000000033898060a01b0360248a60051b813501013516610ab5565b3033878060a01b0360248860051b813501013516610ab5565b6040519182526020820152828060a01b0360248360051b81350101351690838060a01b038516907f2442e7ccfd30564dcfd95cc7cfdaefdfc6298925b0c609461d5c69ca18ab181260403392a45b016103e7565b634e487b7160e01b600052601160045260246000fd5b60019150610606565b5050600090610537565b9091506020813d602011610661575b8161065160209383610a3c565b8101031261014457519085610523565b3d9150610644565b5060405163149e8f5f60e21b81526001600160a01b0392831660048201526024803560059390931b9290920182013590921690820152604490fd5b6104df565b90506020813d6020116106d3575b816106c460209383610a3c565b81010312610144575184610454565b3d91506106b7565b60405163073f87b560e21b81526001600160a01b039091166004820152602490fd5b604051630c4a255f60e31b81526001600160a01b039091166004820152602490fd5b60405162461bcd60e51b815260206004820152601560248201527410dbdb9d1c9858dd1cc81b9bdd08185b1b1bddd959605a1b6044820152606490fd5b60405163cfaf194b60e01b8152600490fd5b604051633ee5aeb560e01b8152600490fd5b34610144576000366003190112610144576020600354604051908152f35b34610144576000366003190112610144576000546040516001600160a01b039091168152602090f35b34610144576000366003190112610144576107e0610a6b565b6107e8610a97565b600160ff1960025416176002557f62e78cea01bee320cd4e420270b5ea74000d11b0c9f74754ebdbfc544b05a2586020604051338152a1005b346101445760003660031901126101445761083a610a6b565b600080546001600160a01b0319811682556001600160a01b03167f8be0079c531659141344cd1fd0a4f28419497f9722a3daafe3b4186f6b6457e08280a3005b34610144576000366003190112610144576040517f00000000000000000000000000000000000000000000000000000000000000006001600160a01b03168152602090f35b3461014457600036600319011261014457602060ff600254166040519015158152f35b34610144576000366003190112610144576108fb610a6b565b60025460ff81161561093a5760ff19166002557f5db9ee0a495bf2e6ff9c91a7834c1ba4fdd244a5e8aa4e537bd38aeae4b073aa6020604051338152a1005b604051638dfc202b60e01b8152600490fd5b346101445760003660031901126101445760206040516101f48152f35b34610144576020366003190112610144576001600160a01b0361098a610a26565b166000526004602052602060ff604060002054166040519015158152f35b34610144576020366003190112610144576004356109c4610a6b565b6101f4808211610a07577fb841faf0d1b32571f4ef966a2f35e3ae51f3cdda45318c3da5570a5b2ad85605604083600354908060035582519182526020820152a1005b6040516358e4a91360e01b815260048101929092526024820152604490fd5b600435906001600160a01b038216820361014457565b90601f8019910116810190811067ffffffffffffffff82111761022257604052565b9190820391821161060c57565b6000546001600160a01b03163303610a7f57565b60405163118cdaa760e01b8152336004820152602490fd5b60ff60025416610aa357565b60405163d93c066560e01b8152600490fd5b6040516323b872dd60e01b60208201526001600160a01b03928316602482015292909116604483015260648083019390935291815260a081019181831067ffffffffffffffff84111761022257610b0e92604052610b10565b565b906000602091828151910182855af115610289576000513d610b6357506001600160a01b0381163b155b610b415750565b604051635274afe760e01b81526001600160a01b039091166004820152602490fd5b60011415610b3a56fea2646970667358221220fa982d615ed887337a30914efba458a9898f30a7e2384f9827137dcf8878f63064736f6c63430008180033","opcodes":"PUSH1 0xA0 CALLVALUE PUSH2 0xEF JUMPI PUSH1 0x1F PUSH2 0xCAD CODESIZE DUP2 SWAP1 SUB SWAP2 DUP3 ADD PUSH1 0x1F NOT AND DUP4 ADD SWAP2 PUSH1 0x1 PUSH1 0x1 PUSH1 0x40 SHL SUB DUP4 GT DUP5 DUP5 LT OR PUSH2 0xF4 JUMPI DUP1 DUP5 SWAP3 PUSH1 0x20 SWAP5 PUSH1 0x40 MSTORE DUP4 CODECOPY DUP2 ADD SUB SLT PUSH2 0xEF JUMPI MLOAD PUSH1 0x1 PUSH1 0x1 PUSH1 0xA0 SHL SUB DUP1 DUP3 AND DUP1 DUP4 SUB PUSH2 0xEF JUMPI CALLER ISZERO PUSH2 0xD6 JUMPI PUSH1 0x0 SLOAD CALLER PUSH1 0x1 DUP1 PUSH1 0xA0 SHL SUB NOT DUP3 AND OR PUSH1 0x0 SSTORE PUSH1 0x40 MLOAD SWAP3 CALLER SWAP2 AND PUSH32 0x8BE0079C531659141344CD1FD0A4F28419497F9722A3DAAFE3B4186F6B6457E0 PUSH1 0x0 DUP1 LOG3 PUSH1 0x1 DUP1 SSTORE PUSH2 0x12C PUSH1 0x3 SSTORE ISZERO PUSH2 0xC7 JUMPI POP PUSH1 0x80 MSTORE PUSH1 0x40 MLOAD PUSH2 0xBA2 SWAP1 DUP2 PUSH2 0x10B DUP3 CODECOPY PUSH1 0x80 MLOAD DUP2 DUP2 DUP2 PUSH2 0x568 ADD MSTORE PUSH2 0x890 ADD MSTORE RETURN JUMPDEST PUSH4 0xD92E233D PUSH1 0xE0 SHL DUP2 MSTORE PUSH1 0x4 SWAP1 REVERT JUMPDEST PUSH1 0x40 MLOAD PUSH4 0x1E4FBDF7 PUSH1 0xE0 SHL DUP2 MSTORE PUSH1 0x0 PUSH1 0x4 DUP3 ADD MSTORE PUSH1 0x24 SWAP1 REVERT JUMPDEST PUSH1 0x0 DUP1 REVERT JUMPDEST PUSH4 0x4E487B71 PUSH1 0xE0 SHL PUSH1 0x0 MSTORE PUSH1 0x41 PUSH1 0x4 MSTORE PUSH1 0x24 PUSH1 0x0 REVERT INVALID PUSH1 0x80 PUSH1 0x40 MSTORE PUSH1 0x4 CALLDATASIZE LT ISZERO PUSH2 0x12 JUMPI PUSH1 0x0 DUP1 REVERT JUMPDEST PUSH1 0x0 CALLDATALOAD PUSH1 0xE0 SHR DUP1 PUSH4 0x3D7BDA7 EQ PUSH2 0x9A8 JUMPI DUP1 PUSH4 0x23EC8C21 EQ PUSH2 0x969 JUMPI DUP1 PUSH4 0x2C597DE9 EQ PUSH2 0x94C JUMPI DUP1 PUSH4 0x3F4BA83A EQ PUSH2 0x8E2 JUMPI DUP1 PUSH4 0x5C975ABB EQ PUSH2 0x8BF JUMPI DUP1 PUSH4 0x61D027B3 EQ PUSH2 0x87A JUMPI DUP1 PUSH4 0x715018A6 EQ PUSH2 0x821 JUMPI DUP1 PUSH4 0x8456CB59 EQ PUSH2 0x7C7 JUMPI DUP1 PUSH4 0x8DA5CB5B EQ PUSH2 0x79E JUMPI DUP1 PUSH4 0xA107807D EQ PUSH2 0x780 JUMPI DUP1 PUSH4 0xC0EC9FB0 EQ PUSH2 0x32D JUMPI DUP1 PUSH4 0xD59BA0DF EQ PUSH2 0x295 JUMPI DUP1 PUSH4 0xDEFB51BD EQ PUSH2 0x149 JUMPI PUSH4 0xF2FDE38B EQ PUSH2 0xB6 JUMPI PUSH1 0x0 DUP1 REVERT JUMPDEST CALLVALUE PUSH2 0x144 JUMPI PUSH1 0x20 CALLDATASIZE PUSH1 0x3 NOT ADD SLT PUSH2 0x144 JUMPI PUSH2 0xCF PUSH2 0xA26 JUMP JUMPDEST PUSH2 0xD7 PUSH2 0xA6B JUMP JUMPDEST PUSH1 0x1 PUSH1 0x1 PUSH1 0xA0 SHL SUB SWAP1 DUP2 AND SWAP1 DUP2 ISZERO PUSH2 0x12B JUMPI PUSH1 0x0 SLOAD DUP3 PUSH12 0xFFFFFFFFFFFFFFFFFFFFFFFF PUSH1 0xA0 SHL DUP3 AND OR PUSH1 0x0 SSTORE AND PUSH32 0x8BE0079C531659141344CD1FD0A4F28419497F9722A3DAAFE3B4186F6B6457E0 PUSH1 0x0 DUP1 LOG3 STOP JUMPDEST PUSH1 0x40 MLOAD PUSH4 0x1E4FBDF7 PUSH1 0xE0 SHL DUP2 MSTORE PUSH1 0x0 PUSH1 0x4 DUP3 ADD MSTORE PUSH1 0x24 SWAP1 REVERT JUMPDEST PUSH1 0x0 DUP1 REVERT JUMPDEST CALLVALUE PUSH2 0x144 JUMPI PUSH1 0x40 CALLDATASIZE PUSH1 0x3 NOT ADD SLT PUSH2 0x144 JUMPI PUSH2 0x162 PUSH2 0xA26 JUMP JUMPDEST PUSH1 0x24 CALLDATALOAD PUSH2 0x16D PUSH2 0xA6B JUMP JUMPDEST PUSH1 0x40 MLOAD PUSH4 0x70A08231 PUSH1 0xE0 SHL DUP2 MSTORE ADDRESS PUSH1 0x4 DUP3 ADD MSTORE PUSH1 0x1 PUSH1 0x1 PUSH1 0xA0 SHL SUB SWAP3 DUP4 AND SWAP3 PUSH1 0x20 SWAP2 DUP3 DUP2 PUSH1 0x24 DUP2 DUP9 GAS STATICCALL SWAP1 DUP2 ISZERO PUSH2 0x289 JUMPI PUSH1 0x0 SWAP2 PUSH2 0x25C JUMPI JUMPDEST POP DUP1 DUP5 GT PUSH2 0x238 JUMPI POP PUSH1 0x0 SLOAD PUSH1 0x40 MLOAD PUSH4 0xA9059CBB PUSH1 0xE0 SHL DUP5 DUP3 ADD MSTORE SWAP2 AND PUSH1 0x24 DUP3 ADD MSTORE PUSH1 0x44 DUP1 DUP3 ADD DUP5 SWAP1 MSTORE DUP2 MSTORE SWAP2 PUSH1 0x80 DUP4 ADD PUSH8 0xFFFFFFFFFFFFFFFF DUP2 GT DUP5 DUP3 LT OR PUSH2 0x222 JUMPI PUSH32 0xDD417E56CD9A20F9B3CC7DE6C01058B00DDB83A837E39D7353FEA03F28DC487E SWAP4 PUSH2 0x219 SWAP2 PUSH1 0x40 MSTORE DUP6 PUSH2 0xB10 JUMP JUMPDEST PUSH1 0x40 MLOAD SWAP1 DUP2 MSTORE LOG2 STOP JUMPDEST PUSH4 0x4E487B71 PUSH1 0xE0 SHL PUSH1 0x0 MSTORE PUSH1 0x41 PUSH1 0x4 MSTORE PUSH1 0x24 PUSH1 0x0 REVERT JUMPDEST DUP5 PUSH1 0x64 SWAP2 DUP6 PUSH1 0x40 MLOAD SWAP3 PUSH4 0x190B9247 PUSH1 0xE2 SHL DUP5 MSTORE PUSH1 0x4 DUP5 ADD MSTORE PUSH1 0x24 DUP4 ADD MSTORE PUSH1 0x44 DUP3 ADD MSTORE REVERT JUMPDEST SWAP1 POP DUP3 DUP2 DUP2 RETURNDATASIZE DUP4 GT PUSH2 0x282 JUMPI JUMPDEST PUSH2 0x273 DUP2 DUP4 PUSH2 0xA3C JUMP JUMPDEST DUP2 ADD SUB SLT PUSH2 0x144 JUMPI MLOAD DUP6 PUSH2 0x1A6 JUMP JUMPDEST POP RETURNDATASIZE PUSH2 0x269 JUMP JUMPDEST PUSH1 0x40 MLOAD RETURNDATASIZE PUSH1 0x0 DUP3 RETURNDATACOPY RETURNDATASIZE SWAP1 REVERT JUMPDEST CALLVALUE PUSH2 0x144 JUMPI PUSH1 0x40 CALLDATASIZE PUSH1 0x3 NOT ADD SLT PUSH2 0x144 JUMPI PUSH2 0x2AE PUSH2 0xA26 JUMP JUMPDEST PUSH1 0x24 CALLDATALOAD SWAP1 DUP2 ISZERO ISZERO DUP1 SWAP3 SUB PUSH2 0x144 JUMPI PUSH2 0x2C4 PUSH2 0xA6B JUMP JUMPDEST PUSH1 0x1 PUSH1 0x1 PUSH1 0xA0 SHL SUB AND SWAP1 DUP2 ISZERO PUSH2 0x31B JUMPI PUSH1 0x20 PUSH32 0x19E1FEE2E38695E60AD3EF8C81759C22D6D7EE56F9B8805363820A50DA468A18 SWAP2 DUP4 PUSH1 0x0 MSTORE PUSH1 0x4 DUP3 MSTORE PUSH1 0x40 PUSH1 0x0 KECCAK256 PUSH1 0xFF NOT DUP2 SLOAD AND PUSH1 0xFF DUP4 AND OR SWAP1 SSTORE PUSH1 0x40 MLOAD SWAP1 DUP2 MSTORE LOG2 STOP JUMPDEST PUSH1 0x40 MLOAD PUSH4 0xD92E233D PUSH1 0xE0 SHL DUP2 MSTORE PUSH1 0x4 SWAP1 REVERT JUMPDEST CALLVALUE PUSH2 0x144 JUMPI PUSH1 0x40 CALLDATASIZE PUSH1 0x3 NOT ADD SLT PUSH2 0x144 JUMPI PUSH2 0x346 PUSH2 0xA26 JUMP JUMPDEST PUSH8 0xFFFFFFFFFFFFFFFF PUSH1 0x24 CALLDATALOAD GT PUSH2 0x144 JUMPI CALLDATASIZE PUSH1 0x23 PUSH1 0x24 CALLDATALOAD ADD SLT ISZERO PUSH2 0x144 JUMPI PUSH8 0xFFFFFFFFFFFFFFFF PUSH1 0x24 CALLDATALOAD PUSH1 0x4 ADD CALLDATALOAD GT PUSH2 0x144 JUMPI CALLDATASIZE PUSH1 0x24 DUP1 CALLDATALOAD PUSH1 0x4 ADD CALLDATALOAD PUSH1 0x5 SHL DUP2 CALLDATALOAD ADD ADD GT PUSH2 0x144 JUMPI PUSH1 0x2 PUSH1 0x1 SLOAD EQ PUSH2 0x76E JUMPI PUSH1 0x2 PUSH1 0x1 SSTORE PUSH2 0x3A5 PUSH2 0xA97 JUMP JUMPDEST PUSH1 0x24 CALLDATALOAD PUSH1 0x4 ADD CALLDATALOAD ISZERO PUSH2 0x75C JUMPI CALLER ORIGIN SUB PUSH2 0x71F JUMPI PUSH1 0x1 PUSH1 0x1 PUSH1 0xA0 SHL SUB DUP2 AND PUSH1 0x0 SWAP1 DUP2 MSTORE PUSH1 0x4 PUSH1 0x20 MSTORE PUSH1 0x40 SWAP1 KECCAK256 SLOAD PUSH1 0xFF AND ISZERO PUSH2 0x6FD JUMPI DUP1 EXTCODESIZE ISZERO PUSH2 0x6DB JUMPI PUSH1 0x3 SLOAD SWAP1 PUSH1 0x0 JUMPDEST PUSH1 0x24 CALLDATALOAD PUSH1 0x4 ADD CALLDATALOAD DUP2 LT PUSH2 0x3FA JUMPI PUSH1 0x1 DUP1 SSTORE STOP JUMPDEST PUSH1 0x24 DUP1 CALLDATALOAD PUSH1 0x5 DUP4 SWAP1 SHL ADD ADD CALLDATALOAD PUSH1 0x1 PUSH1 0x1 PUSH1 0xA0 SHL SUB DUP2 AND SWAP1 SUB PUSH2 0x144 JUMPI PUSH1 0x40 MLOAD PUSH4 0x70A08231 PUSH1 0xE0 SHL DUP2 MSTORE CALLER PUSH1 0x4 DUP3 ADD MSTORE PUSH1 0x20 DUP2 PUSH1 0x24 DUP2 DUP2 CALLDATALOAD PUSH1 0x5 DUP8 SWAP1 SHL ADD DUP3 ADD CALLDATALOAD PUSH1 0x1 PUSH1 0x1 PUSH1 0xA0 SHL SUB AND GAS STATICCALL SWAP1 DUP2 ISZERO PUSH2 0x289 JUMPI PUSH1 0x0 SWAP2 PUSH2 0x6A9 JUMPI JUMPDEST POP PUSH1 0x40 MLOAD PUSH4 0x10E059A1 PUSH1 0xE1 SHL PUSH1 0x20 DUP3 ADD SWAP1 DUP2 MSTORE CALLER PUSH1 0x24 DUP1 DUP5 ADD SWAP2 SWAP1 SWAP2 MSTORE PUSH1 0x5 DUP6 SWAP1 SHL DUP2 CALLDATALOAD ADD ADD CALLDATALOAD PUSH1 0x1 PUSH1 0x1 PUSH1 0xA0 SHL SUB AND PUSH1 0x44 DUP1 DUP5 ADD SWAP2 SWAP1 SWAP2 MSTORE DUP3 MSTORE PUSH1 0x0 SWAP2 DUP3 SWAP2 SWAP1 PUSH2 0x4A0 PUSH1 0x64 DUP3 PUSH2 0xA3C JUMP JUMPDEST MLOAD SWAP1 DUP3 DUP8 GAS CALL RETURNDATASIZE ISZERO PUSH2 0x6A4 JUMPI RETURNDATASIZE PUSH8 0xFFFFFFFFFFFFFFFF DUP2 GT PUSH2 0x222 JUMPI PUSH1 0x40 MLOAD SWAP1 PUSH2 0x4D4 PUSH1 0x1F DUP3 ADD PUSH1 0x1F NOT AND PUSH1 0x20 ADD DUP4 PUSH2 0xA3C JUMP JUMPDEST DUP2 MSTORE PUSH1 0x0 PUSH1 0x20 RETURNDATASIZE SWAP3 ADD RETURNDATACOPY JUMPDEST ISZERO PUSH2 0x669 JUMPI PUSH1 0x40 MLOAD PUSH4 0x70A08231 PUSH1 0xE0 SHL DUP2 MSTORE CALLER PUSH1 0x4 DUP3 ADD MSTORE SWAP1 PUSH1 0x20 DUP3 PUSH1 0x24 DUP2 DUP2 CALLDATALOAD PUSH1 0x5 DUP9 SWAP1 SHL ADD DUP3 ADD CALLDATALOAD PUSH1 0x1 PUSH1 0x1 PUSH1 0xA0 SHL SUB AND GAS STATICCALL SWAP2 DUP3 ISZERO PUSH2 0x289 JUMPI PUSH1 0x0 SWAP3 PUSH2 0x635 JUMPI JUMPDEST POP DUP1 DUP3 GT ISZERO PUSH2 0x62B JUMPI PUSH2 0x535 SWAP2 PUSH2 0xA5E JUMP JUMPDEST SWAP1 JUMPDEST DUP2 ISZERO PUSH2 0x622 JUMPI DUP2 DUP5 DUP2 MUL DIV DUP5 SUB PUSH2 0x60C JUMPI DUP2 PUSH2 0x2710 DUP6 PUSH1 0x1 SWAP5 MUL DIV PUSH2 0x5B8 DUP2 DUP6 SHR PUSH2 0x59F PUSH2 0x565 DUP3 DUP6 PUSH2 0xA5E JUMP JUMPDEST SWAP2 PUSH32 0x0 CALLER DUP10 DUP1 PUSH1 0xA0 SHL SUB PUSH1 0x24 DUP11 PUSH1 0x5 SHL DUP2 CALLDATALOAD ADD ADD CALLDATALOAD AND PUSH2 0xAB5 JUMP JUMPDEST ADDRESS CALLER DUP8 DUP1 PUSH1 0xA0 SHL SUB PUSH1 0x24 DUP9 PUSH1 0x5 SHL DUP2 CALLDATALOAD ADD ADD CALLDATALOAD AND PUSH2 0xAB5 JUMP JUMPDEST PUSH1 0x40 MLOAD SWAP2 DUP3 MSTORE PUSH1 0x20 DUP3 ADD MSTORE DUP3 DUP1 PUSH1 0xA0 SHL SUB PUSH1 0x24 DUP4 PUSH1 0x5 SHL DUP2 CALLDATALOAD ADD ADD CALLDATALOAD AND SWAP1 DUP4 DUP1 PUSH1 0xA0 SHL SUB DUP6 AND SWAP1 PUSH32 0x2442E7CCFD30564DCFD95CC7CFDAEFDFC6298925B0C609461D5C69CA18AB1812 PUSH1 0x40 CALLER SWAP3 LOG4 JUMPDEST ADD PUSH2 0x3E7 JUMP JUMPDEST PUSH4 0x4E487B71 PUSH1 0xE0 SHL PUSH1 0x0 MSTORE PUSH1 0x11 PUSH1 0x4 MSTORE PUSH1 0x24 PUSH1 0x0 REVERT JUMPDEST PUSH1 0x1 SWAP2 POP PUSH2 0x606 JUMP JUMPDEST POP POP PUSH1 0x0 SWAP1 PUSH2 0x537 JUMP JUMPDEST SWAP1 SWAP2 POP PUSH1 0x20 DUP2 RETURNDATASIZE PUSH1 0x20 GT PUSH2 0x661 JUMPI JUMPDEST DUP2 PUSH2 0x651 PUSH1 0x20 SWAP4 DUP4 PUSH2 0xA3C JUMP JUMPDEST DUP2 ADD SUB SLT PUSH2 0x144 JUMPI MLOAD SWAP1 DUP6 PUSH2 0x523 JUMP JUMPDEST RETURNDATASIZE SWAP2 POP PUSH2 0x644 JUMP JUMPDEST POP PUSH1 0x40 MLOAD PUSH4 0x149E8F5F PUSH1 0xE2 SHL DUP2 MSTORE PUSH1 0x1 PUSH1 0x1 PUSH1 0xA0 SHL SUB SWAP3 DUP4 AND PUSH1 0x4 DUP3 ADD MSTORE PUSH1 0x24 DUP1 CALLDATALOAD PUSH1 0x5 SWAP4 SWAP1 SWAP4 SHL SWAP3 SWAP1 SWAP3 ADD DUP3 ADD CALLDATALOAD SWAP1 SWAP3 AND SWAP1 DUP3 ADD MSTORE PUSH1 0x44 SWAP1 REVERT JUMPDEST PUSH2 0x4DF JUMP JUMPDEST SWAP1 POP PUSH1 0x20 DUP2 RETURNDATASIZE PUSH1 0x20 GT PUSH2 0x6D3 JUMPI JUMPDEST DUP2 PUSH2 0x6C4 PUSH1 0x20 SWAP4 DUP4 PUSH2 0xA3C JUMP JUMPDEST DUP2 ADD SUB SLT PUSH2 0x144 JUMPI MLOAD DUP5 PUSH2 0x454 JUMP JUMPDEST RETURNDATASIZE SWAP2 POP PUSH2 0x6B7 JUMP JUMPDEST PUSH1 0x40 MLOAD PUSH4 0x73F87B5 PUSH1 0xE2 SHL DUP2 MSTORE PUSH1 0x1 PUSH1 0x1 PUSH1 0xA0 SHL SUB SWAP1 SWAP2 AND PUSH1 0x4 DUP3 ADD MSTORE PUSH1 0x24 SWAP1 REVERT JUMPDEST PUSH1 0x40 MLOAD PUSH4 0xC4A255F PUSH1 0xE3 SHL DUP2 MSTORE PUSH1 0x1 PUSH1 0x1 PUSH1 0xA0 SHL SUB SWAP1 SWAP2 AND PUSH1 0x4 DUP3 ADD MSTORE PUSH1 0x24 SWAP1 REVERT JUMPDEST PUSH1 0x40 MLOAD PUSH3 0x461BCD PUSH1 0xE5 SHL DUP2 MSTORE PUSH1 0x20 PUSH1 0x4 DUP3 ADD MSTORE PUSH1 0x15 PUSH1 0x24 DUP3 ADD MSTORE PUSH21 0x10DBDB9D1C9858DD1CC81B9BDD08185B1B1BDDD959 PUSH1 0x5A SHL PUSH1 0x44 DUP3 ADD MSTORE PUSH1 0x64 SWAP1 REVERT JUMPDEST PUSH1 0x40 MLOAD PUSH4 0xCFAF194B PUSH1 0xE0 SHL DUP2 MSTORE PUSH1 0x4 SWAP1 REVERT JUMPDEST PUSH1 0x40 MLOAD PUSH4 0x3EE5AEB5 PUSH1 0xE0 SHL DUP2 MSTORE PUSH1 0x4 SWAP1 REVERT JUMPDEST CALLVALUE PUSH2 0x144 JUMPI PUSH1 0x0 CALLDATASIZE PUSH1 0x3 NOT ADD SLT PUSH2 0x144 JUMPI PUSH1 0x20 PUSH1 0x3 SLOAD PUSH1 0x40 MLOAD SWAP1 DUP2 MSTORE RETURN JUMPDEST CALLVALUE PUSH2 0x144 JUMPI PUSH1 0x0 CALLDATASIZE PUSH1 0x3 NOT ADD SLT PUSH2 0x144 JUMPI PUSH1 0x0 SLOAD PUSH1 0x40 MLOAD PUSH1 0x1 PUSH1 0x1 PUSH1 0xA0 SHL SUB SWAP1 SWAP2 AND DUP2 MSTORE PUSH1 0x20 SWAP1 RETURN JUMPDEST CALLVALUE PUSH2 0x144 JUMPI PUSH1 0x0 CALLDATASIZE PUSH1 0x3 NOT ADD SLT PUSH2 0x144 JUMPI PUSH2 0x7E0 PUSH2 0xA6B JUMP JUMPDEST PUSH2 0x7E8 PUSH2 0xA97 JUMP JUMPDEST PUSH1 0x1 PUSH1 0xFF NOT PUSH1 0x2 SLOAD AND OR PUSH1 0x2 SSTORE PUSH32 0x62E78CEA01BEE320CD4E420270B5EA74000D11B0C9F74754EBDBFC544B05A258 PUSH1 0x20 PUSH1 0x40 MLOAD CALLER DUP2 MSTORE LOG1 STOP JUMPDEST CALLVALUE PUSH2 0x144 JUMPI PUSH1 0x0 CALLDATASIZE PUSH1 0x3 NOT ADD SLT PUSH2 0x144 JUMPI PUSH2 0x83A PUSH2 0xA6B JUMP JUMPDEST PUSH1 0x0 DUP1 SLOAD PUSH1 0x1 PUSH1 0x1 PUSH1 0xA0 SHL SUB NOT DUP2 AND DUP3 SSTORE PUSH1 0x1 PUSH1 0x1 PUSH1 0xA0 SHL SUB AND PUSH32 0x8BE0079C531659141344CD1FD0A4F28419497F9722A3DAAFE3B4186F6B6457E0 DUP3 DUP1 LOG3 STOP JUMPDEST CALLVALUE PUSH2 0x144 JUMPI PUSH1 0x0 CALLDATASIZE PUSH1 0x3 NOT ADD SLT PUSH2 0x144 JUMPI PUSH1 0x40 MLOAD PUSH32 0x0 PUSH1 0x1 PUSH1 0x1 PUSH1 0xA0 SHL SUB AND DUP2 MSTORE PUSH1 0x20 SWAP1 RETURN JUMPDEST CALLVALUE PUSH2 0x144 JUMPI PUSH1 0x0 CALLDATASIZE PUSH1 0x3 NOT ADD SLT PUSH2 0x144 JUMPI PUSH1 0x20 PUSH1 0xFF PUSH1 0x2 SLOAD AND PUSH1 0x40 MLOAD SWAP1 ISZERO ISZERO DUP2 MSTORE RETURN JUMPDEST CALLVALUE PUSH2 0x144 JUMPI PUSH1 0x0 CALLDATASIZE PUSH1 0x3 NOT ADD SLT PUSH2 0x144 JUMPI PUSH2 0x8FB PUSH2 0xA6B JUMP JUMPDEST PUSH1 0x2 SLOAD PUSH1 0xFF DUP2 AND ISZERO PUSH2 0x93A JUMPI PUSH1 0xFF NOT AND PUSH1 0x2 SSTORE PUSH32 0x5DB9EE0A495BF2E6FF9C91A7834C1BA4FDD244A5E8AA4E537BD38AEAE4B073AA PUSH1 0x20 PUSH1 0x40 MLOAD CALLER DUP2 MSTORE LOG1 STOP JUMPDEST PUSH1 0x40 MLOAD PUSH4 0x8DFC202B PUSH1 0xE0 SHL DUP2 MSTORE PUSH1 0x4 SWAP1 REVERT JUMPDEST CALLVALUE PUSH2 0x144 JUMPI PUSH1 0x0 CALLDATASIZE PUSH1 0x3 NOT ADD SLT PUSH2 0x144 JUMPI PUSH1 0x20 PUSH1 0x40 MLOAD PUSH2 0x1F4 DUP2 MSTORE RETURN JUMPDEST CALLVALUE PUSH2 0x144 JUMPI PUSH1 0x20 CALLDATASIZE PUSH1 0x3 NOT ADD SLT PUSH2 0x144 JUMPI PUSH1 0x1 PUSH1 0x1 PUSH1 0xA0 SHL SUB PUSH2 0x98A PUSH2 0xA26 JUMP JUMPDEST AND PUSH1 0x0 MSTORE PUSH1 0x4 PUSH1 0x20 MSTORE PUSH1 0x20 PUSH1 0xFF PUSH1 0x40 PUSH1 0x0 KECCAK256 SLOAD AND PUSH1 0x40 MLOAD SWAP1 ISZERO ISZERO DUP2 MSTORE RETURN JUMPDEST CALLVALUE PUSH2 0x144 JUMPI PUSH1 0x20 CALLDATASIZE PUSH1 0x3 NOT ADD SLT PUSH2 0x144 JUMPI PUSH1 0x4 CALLDATALOAD PUSH2 0x9C4 PUSH2 0xA6B JUMP JUMPDEST PUSH2 0x1F4 DUP1 DUP3 GT PUSH2 0xA07 JUMPI PUSH32 0xB841FAF0D1B32571F4EF966A2F35E3AE51F3CDDA45318C3DA5570A5B2AD85605 PUSH1 0x40 DUP4 PUSH1 0x3 SLOAD SWAP1 DUP1 PUSH1 0x3 SSTORE DUP3 MLOAD SWAP2 DUP3 MSTORE PUSH1 0x20 DUP3 ADD MSTORE LOG1 STOP JUMPDEST PUSH1 0x40 MLOAD PUSH4 0x58E4A913 PUSH1 0xE0 SHL DUP2 MSTORE PUSH1 0x4 DUP2 ADD SWAP3 SWAP1 SWAP3 MSTORE PUSH1 0x24 DUP3 ADD MSTORE PUSH1 0x44 SWAP1 REVERT JUMPDEST PUSH1 0x4 CALLDATALOAD SWAP1 PUSH1 0x1 PUSH1 0x1 PUSH1 0xA0 SHL SUB DUP3 AND DUP3 SUB PUSH2 0x144 JUMPI JUMP JUMPDEST SWAP1 PUSH1 0x1F DUP1 NOT SWAP2 ADD AND DUP2 ADD SWAP1 DUP2 LT PUSH8 0xFFFFFFFFFFFFFFFF DUP3 GT OR PUSH2 0x222 JUMPI PUSH1 0x40 MSTORE JUMP JUMPDEST SWAP2 SWAP1 DUP3 SUB SWAP2 DUP3 GT PUSH2 0x60C JUMPI JUMP JUMPDEST PUSH1 0x0 SLOAD PUSH1 0x1 PUSH1 0x1 PUSH1 0xA0 SHL SUB AND CALLER SUB PUSH2 0xA7F JUMPI JUMP JUMPDEST PUSH1 0x40 MLOAD PUSH4 0x118CDAA7 PUSH1 0xE0 SHL DUP2 MSTORE CALLER PUSH1 0x4 DUP3 ADD MSTORE PUSH1 0x24 SWAP1 REVERT JUMPDEST PUSH1 0xFF PUSH1 0x2 SLOAD AND PUSH2 0xAA3 JUMPI JUMP JUMPDEST PUSH1 0x40 MLOAD PUSH4 0xD93C0665 PUSH1 0xE0 SHL DUP2 MSTORE PUSH1 0x4 SWAP1 REVERT JUMPDEST PUSH1 0x40 MLOAD PUSH4 0x23B872DD PUSH1 0xE0 SHL PUSH1 0x20 DUP3 ADD MSTORE PUSH1 0x1 PUSH1 0x1 PUSH1 0xA0 SHL SUB SWAP3 DUP4 AND PUSH1 0x24 DUP3 ADD MSTORE SWAP3 SWAP1 SWAP2 AND PUSH1 0x44 DUP4 ADD MSTORE PUSH1 0x64 DUP1 DUP4 ADD SWAP4 SWAP1 SWAP4 MSTORE SWAP2 DUP2 MSTORE PUSH1 0xA0 DUP2 ADD SWAP2 DUP2 DUP4 LT PUSH8 0xFFFFFFFFFFFFFFFF DUP5 GT OR PUSH2 0x222 JUMPI PUSH2 0xB0E SWAP3 PUSH1 0x40 MSTORE PUSH2 0xB10 JUMP JUMPDEST JUMP JUMPDEST SWAP1 PUSH1 0x0 PUSH1 0x20 SWAP2 DUP3 DUP2 MLOAD SWAP2 ADD DUP3 DUP6 GAS CALL ISZERO PUSH2 0x289 JUMPI PUSH1 0x0 MLOAD RETURNDATASIZE PUSH2 0xB63 JUMPI POP PUSH1 0x1 PUSH1 0x1 PUSH1 0xA0 SHL SUB DUP2 AND EXTCODESIZE ISZERO JUMPDEST PUSH2 0xB41 JUMPI POP JUMP JUMPDEST PUSH1 0x40 MLOAD PUSH4 0x5274AFE7 PUSH1 0xE0 SHL DUP2 MSTORE PUSH1 0x1 PUSH1 0x1 PUSH1 0xA0 SHL SUB SWAP1 SWAP2 AND PUSH1 0x4 DUP3 ADD MSTORE PUSH1 0x24 SWAP1 REVERT JUMPDEST PUSH1 0x1 EQ ISZERO PUSH2 0xB3A JUMP INVALID LOG2 PUSH5 0x6970667358 0x22 SLT KECCAK256 STATICCALL SWAP9 0x2D PUSH2 0x5ED8 DUP8 CALLER PUSH27 0x30914EFBA458A9898F30A7E2384F9827137DCF8878F63064736F6C PUSH4 0x43000818 STOP CALLER "},"methodIdentifiers":{"MAX_TAX_BPS()":"2c597de9","allowedDistributors(address)":"23ec8c21","claimFromClanker(address,address[])":"c0ec9fb0","claimTaxBps()":"a107807d","owner()":"8da5cb5b","pause()":"8456cb59","paused()":"5c975abb","renounceOwnership()":"715018a6","setClaimTax(uint256)":"03d7bda7","setDistributor(address,bool)":"d59ba0df","transferOwnership(address)":"f2fde38b","treasury()":"61d027b3","unpause()":"3f4ba83a","withdrawRebateReserve(address,uint256)":"defb51bd"}}}}}