{"contracts/ClaimRouter.sol":{"ClaimRouter":{"abi":[{"inputs":[{"internalType":"address","name":"_treasury","type":"address"}],"stateMutability":"nonpayable","type":"constructor"},{"inputs":[{"internalType":"address","name":"distributor","type":"address"}],"name":"ClaimFailed","type":"error"},{"inputs":[{"internalType":"address","name":"distributor","type":"address"}],"name":"DistributorNotAllowed","type":"error"},{"inputs":[],"name":"EnforcedPause","type":"error"},{"inputs":[],"name":"ExpectedPause","type":"error"},{"inputs":[{"internalType":"address","name":"token","type":"address"},{"internalType":"uint256","name":"requested","type":"uint256"},{"internalType":"uint256","name":"available","type":"uint256"}],"name":"InsufficientRebateBalance","type":"error"},{"inputs":[{"internalType":"address","name":"owner","type":"address"}],"name":"OwnableInvalidOwner","type":"error"},{"inputs":[{"internalType":"address","name":"account","type":"address"}],"name":"OwnableUnauthorizedAccount","type":"error"},{"inputs":[],"name":"ReentrancyGuardReentrantCall","type":"error"},{"inputs":[{"internalType":"address","name":"token","type":"address"}],"name":"SafeERC20FailedOperation","type":"error"},{"inputs":[{"internalType":"uint256","name":"requested","type":"uint256"},{"internalType":"uint256","name":"maximum","type":"uint256"}],"name":"TaxTooHigh","type":"error"},{"inputs":[],"name":"ZeroAddress","type":"error"},{"anonymous":false,"inputs":[{"indexed":true,"internalType":"address","name":"user","type":"address"},{"indexed":true,"internalType":"address","name":"distributor","type":"address"},{"indexed":true,"internalType":"address","name":"token","type":"address"},{"indexed":false,"internalType":"uint256","name":"grossAmount","type":"uint256"},{"indexed":false,"internalType":"uint256","name":"taxAmount","type":"uint256"}],"name":"Claimed","type":"event"},{"anonymous":false,"inputs":[{"indexed":true,"internalType":"address","name":"distributor","type":"address"},{"indexed":false,"internalType":"bool","name":"allowed","type":"bool"}],"name":"DistributorUpdated","type":"event"},{"anonymous":false,"inputs":[{"indexed":true,"internalType":"address","name":"previousOwner","type":"address"},{"indexed":true,"internalType":"address","name":"newOwner","type":"address"}],"name":"OwnershipTransferred","type":"event"},{"anonymous":false,"inputs":[{"indexed":false,"internalType":"address","name":"account","type":"address"}],"name":"Paused","type":"event"},{"anonymous":false,"inputs":[{"indexed":true,"internalType":"address","name":"token","type":"address"},{"indexed":false,"internalType":"uint256","name":"amount","type":"uint256"}],"name":"RebateWithdrawn","type":"event"},{"anonymous":false,"inputs":[{"indexed":false,"internalType":"uint256","name":"oldTaxBps","type":"uint256"},{"indexed":false,"internalType":"uint256","name":"newTaxBps","type":"uint256"}],"name":"TaxUpdated","type":"event"},{"anonymous":false,"inputs":[{"indexed":false,"internalType":"address","name":"account","type":"address"}],"name":"Unpaused","type":"event"},{"inputs":[],"name":"MAX_TAX_BPS","outputs":[{"internalType":"uint256","name":"","type":"uint256"}],"stateMutability":"view","type":"function"},{"inputs":[{"internalType":"address","name":"","type":"address"}],"name":"allowedDistributors","outputs":[{"internalType":"bool","name":"","type":"bool"}],"stateMutability":"view","type":"function"},{"inputs":[{"internalType":"address","name":"distributor","type":"address"},{"internalType":"address[]","name":"rewardTokens","type":"address[]"}],"name":"claimFromClanker","outputs":[],"stateMutability":"nonpayable","type":"function"},{"inputs":[],"name":"claimTaxBps","outputs":[{"internalType":"uint256","name":"","type":"uint256"}],"stateMutability":"view","type":"function"},{"inputs":[],"name":"owner","outputs":[{"internalType":"address","name":"","type":"address"}],"stateMutability":"view","type":"function"},{"inputs":[],"name":"pause","outputs":[],"stateMutability":"nonpayable","type":"function"},{"inputs":[],"name":"paused","outputs":[{"internalType":"bool","name":"","type":"bool"}],"stateMutability":"view","type":"function"},{"inputs":[],"name":"renounceOwnership","outputs":[],"stateMutability":"nonpayable","type":"function"},{"inputs":[{"internalType":"uint256","name":"newTaxBps","type":"uint256"}],"name":"setClaimTax","outputs":[],"stateMutability":"nonpayable","type":"function"},{"inputs":[{"internalType":"address","name":"distributor","type":"address"},{"internalType":"bool","name":"allowed","type":"bool"}],"name":"setDistributor","outputs":[],"stateMutability":"nonpayable","type":"function"},{"inputs":[{"internalType":"address","name":"newOwner","type":"address"}],"name":"transferOwnership","outputs":[],"stateMutability":"nonpayable","type":"function"},{"inputs":[],"name":"treasury","outputs":[{"internalType":"address","name":"","type":"address"}],"stateMutability":"view","type":"function"},{"inputs":[],"name":"unpause","outputs":[],"stateMutability":"nonpayable","type":"function"},{"inputs":[{"internalType":"address","name":"token","type":"address"},{"internalType":"uint256","name":"amount","type":"uint256"}],"name":"withdrawRebateReserve","outputs":[],"stateMutability":"nonpayable","type":"function"}],"evm":{"bytecode":{"linkReferences":{},"object":"60a0346100ef57601f610c7a38819003918201601f19168301916001600160401b038311848410176100f4578084926020946040528339810103126100ef57516001600160a01b038082168083036100ef5733156100d6576000543360018060a01b0319821617600055604051923391167f8be0079c531659141344cd1fd0a4f28419497f9722a3daafe3b4186f6b6457e0600080a36001805561012c600355156100c75750608052604051610b6f908161010b823960805181818161043e01526108180152f35b63d92e233d60e01b8152600490fd5b604051631e4fbdf760e01b815260006004820152602490fd5b600080fd5b634e487b7160e01b600052604160045260246000fdfe6080604052600436101561001257600080fd5b60003560e01c806303d7bda71461093057806323ec8c21146108f15780632c597de9146108d45780633f4ba83a1461086a5780635c975abb1461084757806361d027b314610802578063715018a6146107a95780638456cb591461074f5780638da5cb5b14610726578063a107807d14610708578063c0ec9fb0146102e4578063d59ba0df1461024c578063defb51bd146101495763f2fde38b146100b657600080fd5b34610144576020366003190112610144576100cf6109ae565b6100d7610a59565b6001600160a01b0390811690811561012b57600054826bffffffffffffffffffffffff60a01b821617600055167f8be0079c531659141344cd1fd0a4f28419497f9722a3daafe3b4186f6b6457e0600080a3005b604051631e4fbdf760e01b815260006004820152602490fd5b600080fd5b34610144576040366003190112610144576101626109ae565b60243561016d610a59565b6040516370a0823160e01b81523060048201526001600160a01b039283169290602081602481875afa9081156102405760009161020e575b508083116101ea5750816101e17fdd417e56cd9a20f9b3cc7de6c01058b00ddb83a837e39d7353fea03f28dc487e936020936000541686610aa3565b604051908152a2005b83606491846040519263190b924760e21b8452600484015260248301526044820152fd5b90506020813d602011610238575b81610229602093836109c4565b810103126101445751846101a5565b3d915061021c565b6040513d6000823e3d90fd5b34610144576040366003190112610144576102656109ae565b602435908115158092036101445761027b610a59565b6001600160a01b03169081156102d25760207f19e1fee2e38695e60ad3ef8c81759c22d6d7ee56f9b8805363820a50da468a18918360005260048252604060002060ff1981541660ff8316179055604051908152a2005b60405163d92e233d60e01b8152600490fd5b34610144576040366003190112610144576102fd6109ae565b60243567ffffffffffffffff811161014457366023820112156101445767ffffffffffffffff81600401351161014457366024826004013560051b830101116101445760019160028354146106f65760028355610358610a85565b6001600160a01b03811660009081526004602052604090205460ff16156106d45761038682600401356109e6565b9061039460405192836109c4565b60048301358083526103a5906109e6565b601f190136602084013760005b83600401358110610642575060405160208101634e71d92d60e01b815260048252604082019082821067ffffffffffffffff831117610627576000928392604052519082855af13d1561063d573d67ffffffffffffffff81116106275760405190610427601f8201601f1916602001836109c4565b8152600060203d92013e5b156106055760035491927f000000000000000000000000000000000000000000000000000000000000000092919060005b8160040135811061047357868055005b602460206001600160a01b036104986104938560048801358887016109fe565b610a24565b16604051928380926370a0823160e01b82523060048301525afa8015610240576000906105d1575b6104d691506104cf8389610a38565b5190610a4c565b908782156105ca57508482029180830486036105b4576127108993049061055382851c6105038185610a4c565b506105356105118585610a4c565b336001600160a01b0361052f6104938a60048e013560248f016109fe565b16610aa3565b896001600160a01b0361052f6104938860048c013560248d016109fe565b6001600160a01b0361057061049385600489013560248a016109fe565b1691604051918252602082015260018060a01b038616907f2442e7ccfd30564dcfd95cc7cfdaefdfc6298925b0c609461d5c69ca18ab181260403392a45b01610463565b634e487b7160e01b600052601160045260246000fd5b91506105ae565b506020813d6020116105fd575b816105eb602093836109c4565b81010312610144576104d690516104c0565b3d91506105de565b604051637775c35960e01b81526001600160a01b039091166004820152602490fd5b634e487b7160e01b600052604160045260246000fd5b610432565b60249060206001600160a01b036106636104938460048a01358a88016109fe565b16604051938480926370a0823160e01b82523060048301525afa801561024057869260009161069f575b506106988286610a38565b52016103b2565b9250506020823d6020116106cc575b816106bb602093836109c4565b81010312610144578591518761068d565b3d91506106ae565b604051630c4a255f60e31b81526001600160a01b039091166004820152602490fd5b604051633ee5aeb560e01b8152600490fd5b34610144576000366003190112610144576020600354604051908152f35b34610144576000366003190112610144576000546040516001600160a01b039091168152602090f35b3461014457600036600319011261014457610768610a59565b610770610a85565b600160ff1960025416176002557f62e78cea01bee320cd4e420270b5ea74000d11b0c9f74754ebdbfc544b05a2586020604051338152a1005b34610144576000366003190112610144576107c2610a59565b600080546001600160a01b0319811682556001600160a01b03167f8be0079c531659141344cd1fd0a4f28419497f9722a3daafe3b4186f6b6457e08280a3005b34610144576000366003190112610144576040517f00000000000000000000000000000000000000000000000000000000000000006001600160a01b03168152602090f35b3461014457600036600319011261014457602060ff600254166040519015158152f35b3461014457600036600319011261014457610883610a59565b60025460ff8116156108c25760ff19166002557f5db9ee0a495bf2e6ff9c91a7834c1ba4fdd244a5e8aa4e537bd38aeae4b073aa6020604051338152a1005b604051638dfc202b60e01b8152600490fd5b346101445760003660031901126101445760206040516101f48152f35b34610144576020366003190112610144576001600160a01b036109126109ae565b166000526004602052602060ff604060002054166040519015158152f35b346101445760203660031901126101445760043561094c610a59565b6101f480821161098f577fb841faf0d1b32571f4ef966a2f35e3ae51f3cdda45318c3da5570a5b2ad85605604083600354908060035582519182526020820152a1005b6040516358e4a91360e01b815260048101929092526024820152604490fd5b600435906001600160a01b038216820361014457565b90601f8019910116810190811067ffffffffffffffff82111761062757604052565b67ffffffffffffffff81116106275760051b60200190565b9190811015610a0e5760051b0190565b634e487b7160e01b600052603260045260246000fd5b356001600160a01b03811681036101445790565b8051821015610a0e5760209160051b010190565b919082039182116105b457565b6000546001600160a01b03163303610a6d57565b60405163118cdaa760e01b8152336004820152602490fd5b60ff60025416610a9157565b60405163d93c066560e01b8152600490fd5b60405163a9059cbb60e01b602082019081526001600160a01b0393841660248301526044808301959095529381529092608082019067ffffffffffffffff82118383101761062757602092600092604052519082865af115610240576000513d610b3057508082163b155b610b16575050565b604051635274afe760e01b81529116600482015260249150fd5b60011415610b0e56fea26469706673582212209766b541fc5f6f3eec1971fa9b01c2836800293034d4c46d212c6d92a0f478cb64736f6c63430008180033","opcodes":"PUSH1 0xA0 CALLVALUE PUSH2 0xEF JUMPI PUSH1 0x1F PUSH2 0xC7A CODESIZE DUP2 SWAP1 SUB SWAP2 DUP3 ADD PUSH1 0x1F NOT AND DUP4 ADD SWAP2 PUSH1 0x1 PUSH1 0x1 PUSH1 0x40 SHL SUB DUP4 GT DUP5 DUP5 LT OR PUSH2 0xF4 JUMPI DUP1 DUP5 SWAP3 PUSH1 0x20 SWAP5 PUSH1 0x40 MSTORE DUP4 CODECOPY DUP2 ADD SUB SLT PUSH2 0xEF JUMPI MLOAD PUSH1 0x1 PUSH1 0x1 PUSH1 0xA0 SHL SUB DUP1 DUP3 AND DUP1 DUP4 SUB PUSH2 0xEF JUMPI CALLER ISZERO PUSH2 0xD6 JUMPI PUSH1 0x0 SLOAD CALLER PUSH1 0x1 DUP1 PUSH1 0xA0 SHL SUB NOT DUP3 AND OR PUSH1 0x0 SSTORE PUSH1 0x40 MLOAD SWAP3 CALLER SWAP2 AND PUSH32 0x8BE0079C531659141344CD1FD0A4F28419497F9722A3DAAFE3B4186F6B6457E0 PUSH1 0x0 DUP1 LOG3 PUSH1 0x1 DUP1 SSTORE PUSH2 0x12C PUSH1 0x3 SSTORE ISZERO PUSH2 0xC7 JUMPI POP PUSH1 0x80 MSTORE PUSH1 0x40 MLOAD PUSH2 0xB6F SWAP1 DUP2 PUSH2 0x10B DUP3 CODECOPY PUSH1 0x80 MLOAD DUP2 DUP2 DUP2 PUSH2 0x43E ADD MSTORE PUSH2 0x818 ADD MSTORE RETURN JUMPDEST PUSH4 0xD92E233D PUSH1 0xE0 SHL DUP2 MSTORE PUSH1 0x4 SWAP1 REVERT JUMPDEST PUSH1 0x40 MLOAD PUSH4 0x1E4FBDF7 PUSH1 0xE0 SHL DUP2 MSTORE PUSH1 0x0 PUSH1 0x4 DUP3 ADD MSTORE PUSH1 0x24 SWAP1 REVERT JUMPDEST PUSH1 0x0 DUP1 REVERT JUMPDEST PUSH4 0x4E487B71 PUSH1 0xE0 SHL PUSH1 0x0 MSTORE PUSH1 0x41 PUSH1 0x4 MSTORE PUSH1 0x24 PUSH1 0x0 REVERT INVALID PUSH1 0x80 PUSH1 0x40 MSTORE PUSH1 0x4 CALLDATASIZE LT ISZERO PUSH2 0x12 JUMPI PUSH1 0x0 DUP1 REVERT JUMPDEST PUSH1 0x0 CALLDATALOAD PUSH1 0xE0 SHR DUP1 PUSH4 0x3D7BDA7 EQ PUSH2 0x930 JUMPI DUP1 PUSH4 0x23EC8C21 EQ PUSH2 0x8F1 JUMPI DUP1 PUSH4 0x2C597DE9 EQ PUSH2 0x8D4 JUMPI DUP1 PUSH4 0x3F4BA83A EQ PUSH2 0x86A JUMPI DUP1 PUSH4 0x5C975ABB EQ PUSH2 0x847 JUMPI DUP1 PUSH4 0x61D027B3 EQ PUSH2 0x802 JUMPI DUP1 PUSH4 0x715018A6 EQ PUSH2 0x7A9 JUMPI DUP1 PUSH4 0x8456CB59 EQ PUSH2 0x74F JUMPI DUP1 PUSH4 0x8DA5CB5B EQ PUSH2 0x726 JUMPI DUP1 PUSH4 0xA107807D EQ PUSH2 0x708 JUMPI DUP1 PUSH4 0xC0EC9FB0 EQ PUSH2 0x2E4 JUMPI DUP1 PUSH4 0xD59BA0DF EQ PUSH2 0x24C JUMPI DUP1 PUSH4 0xDEFB51BD EQ PUSH2 0x149 JUMPI PUSH4 0xF2FDE38B EQ PUSH2 0xB6 JUMPI PUSH1 0x0 DUP1 REVERT JUMPDEST CALLVALUE PUSH2 0x144 JUMPI PUSH1 0x20 CALLDATASIZE PUSH1 0x3 NOT ADD SLT PUSH2 0x144 JUMPI PUSH2 0xCF PUSH2 0x9AE JUMP JUMPDEST PUSH2 0xD7 PUSH2 0xA59 JUMP JUMPDEST PUSH1 0x1 PUSH1 0x1 PUSH1 0xA0 SHL SUB SWAP1 DUP2 AND SWAP1 DUP2 ISZERO PUSH2 0x12B JUMPI PUSH1 0x0 SLOAD DUP3 PUSH12 0xFFFFFFFFFFFFFFFFFFFFFFFF PUSH1 0xA0 SHL DUP3 AND OR PUSH1 0x0 SSTORE AND PUSH32 0x8BE0079C531659141344CD1FD0A4F28419497F9722A3DAAFE3B4186F6B6457E0 PUSH1 0x0 DUP1 LOG3 STOP JUMPDEST PUSH1 0x40 MLOAD PUSH4 0x1E4FBDF7 PUSH1 0xE0 SHL DUP2 MSTORE PUSH1 0x0 PUSH1 0x4 DUP3 ADD MSTORE PUSH1 0x24 SWAP1 REVERT JUMPDEST PUSH1 0x0 DUP1 REVERT JUMPDEST CALLVALUE PUSH2 0x144 JUMPI PUSH1 0x40 CALLDATASIZE PUSH1 0x3 NOT ADD SLT PUSH2 0x144 JUMPI PUSH2 0x162 PUSH2 0x9AE JUMP JUMPDEST PUSH1 0x24 CALLDATALOAD PUSH2 0x16D PUSH2 0xA59 JUMP JUMPDEST PUSH1 0x40 MLOAD PUSH4 0x70A08231 PUSH1 0xE0 SHL DUP2 MSTORE ADDRESS PUSH1 0x4 DUP3 ADD MSTORE PUSH1 0x1 PUSH1 0x1 PUSH1 0xA0 SHL SUB SWAP3 DUP4 AND SWAP3 SWAP1 PUSH1 0x20 DUP2 PUSH1 0x24 DUP2 DUP8 GAS STATICCALL SWAP1 DUP2 ISZERO PUSH2 0x240 JUMPI PUSH1 0x0 SWAP2 PUSH2 0x20E JUMPI JUMPDEST POP DUP1 DUP4 GT PUSH2 0x1EA JUMPI POP DUP2 PUSH2 0x1E1 PUSH32 0xDD417E56CD9A20F9B3CC7DE6C01058B00DDB83A837E39D7353FEA03F28DC487E SWAP4 PUSH1 0x20 SWAP4 PUSH1 0x0 SLOAD AND DUP7 PUSH2 0xAA3 JUMP JUMPDEST PUSH1 0x40 MLOAD SWAP1 DUP2 MSTORE LOG2 STOP JUMPDEST DUP4 PUSH1 0x64 SWAP2 DUP5 PUSH1 0x40 MLOAD SWAP3 PUSH4 0x190B9247 PUSH1 0xE2 SHL DUP5 MSTORE PUSH1 0x4 DUP5 ADD MSTORE PUSH1 0x24 DUP4 ADD MSTORE PUSH1 0x44 DUP3 ADD MSTORE REVERT JUMPDEST SWAP1 POP PUSH1 0x20 DUP2 RETURNDATASIZE PUSH1 0x20 GT PUSH2 0x238 JUMPI JUMPDEST DUP2 PUSH2 0x229 PUSH1 0x20 SWAP4 DUP4 PUSH2 0x9C4 JUMP JUMPDEST DUP2 ADD SUB SLT PUSH2 0x144 JUMPI MLOAD DUP5 PUSH2 0x1A5 JUMP JUMPDEST RETURNDATASIZE SWAP2 POP PUSH2 0x21C JUMP JUMPDEST PUSH1 0x40 MLOAD RETURNDATASIZE PUSH1 0x0 DUP3 RETURNDATACOPY RETURNDATASIZE SWAP1 REVERT JUMPDEST CALLVALUE PUSH2 0x144 JUMPI PUSH1 0x40 CALLDATASIZE PUSH1 0x3 NOT ADD SLT PUSH2 0x144 JUMPI PUSH2 0x265 PUSH2 0x9AE JUMP JUMPDEST PUSH1 0x24 CALLDATALOAD SWAP1 DUP2 ISZERO ISZERO DUP1 SWAP3 SUB PUSH2 0x144 JUMPI PUSH2 0x27B PUSH2 0xA59 JUMP JUMPDEST PUSH1 0x1 PUSH1 0x1 PUSH1 0xA0 SHL SUB AND SWAP1 DUP2 ISZERO PUSH2 0x2D2 JUMPI PUSH1 0x20 PUSH32 0x19E1FEE2E38695E60AD3EF8C81759C22D6D7EE56F9B8805363820A50DA468A18 SWAP2 DUP4 PUSH1 0x0 MSTORE PUSH1 0x4 DUP3 MSTORE PUSH1 0x40 PUSH1 0x0 KECCAK256 PUSH1 0xFF NOT DUP2 SLOAD AND PUSH1 0xFF DUP4 AND OR SWAP1 SSTORE PUSH1 0x40 MLOAD SWAP1 DUP2 MSTORE LOG2 STOP JUMPDEST PUSH1 0x40 MLOAD PUSH4 0xD92E233D PUSH1 0xE0 SHL DUP2 MSTORE PUSH1 0x4 SWAP1 REVERT JUMPDEST CALLVALUE PUSH2 0x144 JUMPI PUSH1 0x40 CALLDATASIZE PUSH1 0x3 NOT ADD SLT PUSH2 0x144 JUMPI PUSH2 0x2FD PUSH2 0x9AE JUMP JUMPDEST PUSH1 0x24 CALLDATALOAD PUSH8 0xFFFFFFFFFFFFFFFF DUP2 GT PUSH2 0x144 JUMPI CALLDATASIZE PUSH1 0x23 DUP3 ADD SLT ISZERO PUSH2 0x144 JUMPI PUSH8 0xFFFFFFFFFFFFFFFF DUP2 PUSH1 0x4 ADD CALLDATALOAD GT PUSH2 0x144 JUMPI CALLDATASIZE PUSH1 0x24 DUP3 PUSH1 0x4 ADD CALLDATALOAD PUSH1 0x5 SHL DUP4 ADD ADD GT PUSH2 0x144 JUMPI PUSH1 0x1 SWAP2 PUSH1 0x2 DUP4 SLOAD EQ PUSH2 0x6F6 JUMPI PUSH1 0x2 DUP4 SSTORE PUSH2 0x358 PUSH2 0xA85 JUMP JUMPDEST PUSH1 0x1 PUSH1 0x1 PUSH1 0xA0 SHL SUB DUP2 AND PUSH1 0x0 SWAP1 DUP2 MSTORE PUSH1 0x4 PUSH1 0x20 MSTORE PUSH1 0x40 SWAP1 KECCAK256 SLOAD PUSH1 0xFF AND ISZERO PUSH2 0x6D4 JUMPI PUSH2 0x386 DUP3 PUSH1 0x4 ADD CALLDATALOAD PUSH2 0x9E6 JUMP JUMPDEST SWAP1 PUSH2 0x394 PUSH1 0x40 MLOAD SWAP3 DUP4 PUSH2 0x9C4 JUMP JUMPDEST PUSH1 0x4 DUP4 ADD CALLDATALOAD DUP1 DUP4 MSTORE PUSH2 0x3A5 SWAP1 PUSH2 0x9E6 JUMP JUMPDEST PUSH1 0x1F NOT ADD CALLDATASIZE PUSH1 0x20 DUP5 ADD CALLDATACOPY PUSH1 0x0 JUMPDEST DUP4 PUSH1 0x4 ADD CALLDATALOAD DUP2 LT PUSH2 0x642 JUMPI POP PUSH1 0x40 MLOAD PUSH1 0x20 DUP2 ADD PUSH4 0x4E71D92D PUSH1 0xE0 SHL DUP2 MSTORE PUSH1 0x4 DUP3 MSTORE PUSH1 0x40 DUP3 ADD SWAP1 DUP3 DUP3 LT PUSH8 0xFFFFFFFFFFFFFFFF DUP4 GT OR PUSH2 0x627 JUMPI PUSH1 0x0 SWAP3 DUP4 SWAP3 PUSH1 0x40 MSTORE MLOAD SWAP1 DUP3 DUP6 GAS CALL RETURNDATASIZE ISZERO PUSH2 0x63D JUMPI RETURNDATASIZE PUSH8 0xFFFFFFFFFFFFFFFF DUP2 GT PUSH2 0x627 JUMPI PUSH1 0x40 MLOAD SWAP1 PUSH2 0x427 PUSH1 0x1F DUP3 ADD PUSH1 0x1F NOT AND PUSH1 0x20 ADD DUP4 PUSH2 0x9C4 JUMP JUMPDEST DUP2 MSTORE PUSH1 0x0 PUSH1 0x20 RETURNDATASIZE SWAP3 ADD RETURNDATACOPY JUMPDEST ISZERO PUSH2 0x605 JUMPI PUSH1 0x3 SLOAD SWAP2 SWAP3 PUSH32 0x0 SWAP3 SWAP2 SWAP1 PUSH1 0x0 JUMPDEST DUP2 PUSH1 0x4 ADD CALLDATALOAD DUP2 LT PUSH2 0x473 JUMPI DUP7 DUP1 SSTORE STOP JUMPDEST PUSH1 0x24 PUSH1 0x20 PUSH1 0x1 PUSH1 0x1 PUSH1 0xA0 SHL SUB PUSH2 0x498 PUSH2 0x493 DUP6 PUSH1 0x4 DUP9 ADD CALLDATALOAD DUP9 DUP8 ADD PUSH2 0x9FE JUMP JUMPDEST PUSH2 0xA24 JUMP JUMPDEST AND PUSH1 0x40 MLOAD SWAP3 DUP4 DUP1 SWAP3 PUSH4 0x70A08231 PUSH1 0xE0 SHL DUP3 MSTORE ADDRESS PUSH1 0x4 DUP4 ADD MSTORE GAS STATICCALL DUP1 ISZERO PUSH2 0x240 JUMPI PUSH1 0x0 SWAP1 PUSH2 0x5D1 JUMPI JUMPDEST PUSH2 0x4D6 SWAP2 POP PUSH2 0x4CF DUP4 DUP10 PUSH2 0xA38 JUMP JUMPDEST MLOAD SWAP1 PUSH2 0xA4C JUMP JUMPDEST SWAP1 DUP8 DUP3 ISZERO PUSH2 0x5CA JUMPI POP DUP5 DUP3 MUL SWAP2 DUP1 DUP4 DIV DUP7 SUB PUSH2 0x5B4 JUMPI PUSH2 0x2710 DUP10 SWAP4 DIV SWAP1 PUSH2 0x553 DUP3 DUP6 SHR PUSH2 0x503 DUP2 DUP6 PUSH2 0xA4C JUMP JUMPDEST POP PUSH2 0x535 PUSH2 0x511 DUP6 DUP6 PUSH2 0xA4C JUMP JUMPDEST CALLER PUSH1 0x1 PUSH1 0x1 PUSH1 0xA0 SHL SUB PUSH2 0x52F PUSH2 0x493 DUP11 PUSH1 0x4 DUP15 ADD CALLDATALOAD PUSH1 0x24 DUP16 ADD PUSH2 0x9FE JUMP JUMPDEST AND PUSH2 0xAA3 JUMP JUMPDEST DUP10 PUSH1 0x1 PUSH1 0x1 PUSH1 0xA0 SHL SUB PUSH2 0x52F PUSH2 0x493 DUP9 PUSH1 0x4 DUP13 ADD CALLDATALOAD PUSH1 0x24 DUP14 ADD PUSH2 0x9FE JUMP JUMPDEST PUSH1 0x1 PUSH1 0x1 PUSH1 0xA0 SHL SUB PUSH2 0x570 PUSH2 0x493 DUP6 PUSH1 0x4 DUP10 ADD CALLDATALOAD PUSH1 0x24 DUP11 ADD PUSH2 0x9FE JUMP JUMPDEST AND SWAP2 PUSH1 0x40 MLOAD SWAP2 DUP3 MSTORE PUSH1 0x20 DUP3 ADD MSTORE PUSH1 0x1 DUP1 PUSH1 0xA0 SHL SUB DUP7 AND SWAP1 PUSH32 0x2442E7CCFD30564DCFD95CC7CFDAEFDFC6298925B0C609461D5C69CA18AB1812 PUSH1 0x40 CALLER SWAP3 LOG4 JUMPDEST ADD PUSH2 0x463 JUMP JUMPDEST PUSH4 0x4E487B71 PUSH1 0xE0 SHL PUSH1 0x0 MSTORE PUSH1 0x11 PUSH1 0x4 MSTORE PUSH1 0x24 PUSH1 0x0 REVERT JUMPDEST SWAP2 POP PUSH2 0x5AE JUMP JUMPDEST POP PUSH1 0x20 DUP2 RETURNDATASIZE PUSH1 0x20 GT PUSH2 0x5FD JUMPI JUMPDEST DUP2 PUSH2 0x5EB PUSH1 0x20 SWAP4 DUP4 PUSH2 0x9C4 JUMP JUMPDEST DUP2 ADD SUB SLT PUSH2 0x144 JUMPI PUSH2 0x4D6 SWAP1 MLOAD PUSH2 0x4C0 JUMP JUMPDEST RETURNDATASIZE SWAP2 POP PUSH2 0x5DE JUMP JUMPDEST PUSH1 0x40 MLOAD PUSH4 0x7775C359 PUSH1 0xE0 SHL DUP2 MSTORE PUSH1 0x1 PUSH1 0x1 PUSH1 0xA0 SHL SUB SWAP1 SWAP2 AND PUSH1 0x4 DUP3 ADD MSTORE PUSH1 0x24 SWAP1 REVERT JUMPDEST PUSH4 0x4E487B71 PUSH1 0xE0 SHL PUSH1 0x0 MSTORE PUSH1 0x41 PUSH1 0x4 MSTORE PUSH1 0x24 PUSH1 0x0 REVERT JUMPDEST PUSH2 0x432 JUMP JUMPDEST PUSH1 0x24 SWAP1 PUSH1 0x20 PUSH1 0x1 PUSH1 0x1 PUSH1 0xA0 SHL SUB PUSH2 0x663 PUSH2 0x493 DUP5 PUSH1 0x4 DUP11 ADD CALLDATALOAD DUP11 DUP9 ADD PUSH2 0x9FE JUMP JUMPDEST AND PUSH1 0x40 MLOAD SWAP4 DUP5 DUP1 SWAP3 PUSH4 0x70A08231 PUSH1 0xE0 SHL DUP3 MSTORE ADDRESS PUSH1 0x4 DUP4 ADD MSTORE GAS STATICCALL DUP1 ISZERO PUSH2 0x240 JUMPI DUP7 SWAP3 PUSH1 0x0 SWAP2 PUSH2 0x69F JUMPI JUMPDEST POP PUSH2 0x698 DUP3 DUP7 PUSH2 0xA38 JUMP JUMPDEST MSTORE ADD PUSH2 0x3B2 JUMP JUMPDEST SWAP3 POP POP PUSH1 0x20 DUP3 RETURNDATASIZE PUSH1 0x20 GT PUSH2 0x6CC JUMPI JUMPDEST DUP2 PUSH2 0x6BB PUSH1 0x20 SWAP4 DUP4 PUSH2 0x9C4 JUMP JUMPDEST DUP2 ADD SUB SLT PUSH2 0x144 JUMPI DUP6 SWAP2 MLOAD DUP8 PUSH2 0x68D JUMP JUMPDEST RETURNDATASIZE SWAP2 POP PUSH2 0x6AE JUMP JUMPDEST PUSH1 0x40 MLOAD PUSH4 0xC4A255F PUSH1 0xE3 SHL DUP2 MSTORE PUSH1 0x1 PUSH1 0x1 PUSH1 0xA0 SHL SUB SWAP1 SWAP2 AND PUSH1 0x4 DUP3 ADD MSTORE PUSH1 0x24 SWAP1 REVERT JUMPDEST PUSH1 0x40 MLOAD PUSH4 0x3EE5AEB5 PUSH1 0xE0 SHL DUP2 MSTORE PUSH1 0x4 SWAP1 REVERT JUMPDEST CALLVALUE PUSH2 0x144 JUMPI PUSH1 0x0 CALLDATASIZE PUSH1 0x3 NOT ADD SLT PUSH2 0x144 JUMPI PUSH1 0x20 PUSH1 0x3 SLOAD PUSH1 0x40 MLOAD SWAP1 DUP2 MSTORE RETURN JUMPDEST CALLVALUE PUSH2 0x144 JUMPI PUSH1 0x0 CALLDATASIZE PUSH1 0x3 NOT ADD SLT PUSH2 0x144 JUMPI PUSH1 0x0 SLOAD PUSH1 0x40 MLOAD PUSH1 0x1 PUSH1 0x1 PUSH1 0xA0 SHL SUB SWAP1 SWAP2 AND DUP2 MSTORE PUSH1 0x20 SWAP1 RETURN JUMPDEST CALLVALUE PUSH2 0x144 JUMPI PUSH1 0x0 CALLDATASIZE PUSH1 0x3 NOT ADD SLT PUSH2 0x144 JUMPI PUSH2 0x768 PUSH2 0xA59 JUMP JUMPDEST PUSH2 0x770 PUSH2 0xA85 JUMP JUMPDEST PUSH1 0x1 PUSH1 0xFF NOT PUSH1 0x2 SLOAD AND OR PUSH1 0x2 SSTORE PUSH32 0x62E78CEA01BEE320CD4E420270B5EA74000D11B0C9F74754EBDBFC544B05A258 PUSH1 0x20 PUSH1 0x40 MLOAD CALLER DUP2 MSTORE LOG1 STOP JUMPDEST CALLVALUE PUSH2 0x144 JUMPI PUSH1 0x0 CALLDATASIZE PUSH1 0x3 NOT ADD SLT PUSH2 0x144 JUMPI PUSH2 0x7C2 PUSH2 0xA59 JUMP JUMPDEST PUSH1 0x0 DUP1 SLOAD PUSH1 0x1 PUSH1 0x1 PUSH1 0xA0 SHL SUB NOT DUP2 AND DUP3 SSTORE PUSH1 0x1 PUSH1 0x1 PUSH1 0xA0 SHL SUB AND PUSH32 0x8BE0079C531659141344CD1FD0A4F28419497F9722A3DAAFE3B4186F6B6457E0 DUP3 DUP1 LOG3 STOP JUMPDEST CALLVALUE PUSH2 0x144 JUMPI PUSH1 0x0 CALLDATASIZE PUSH1 0x3 NOT ADD SLT PUSH2 0x144 JUMPI PUSH1 0x40 MLOAD PUSH32 0x0 PUSH1 0x1 PUSH1 0x1 PUSH1 0xA0 SHL SUB AND DUP2 MSTORE PUSH1 0x20 SWAP1 RETURN JUMPDEST CALLVALUE PUSH2 0x144 JUMPI PUSH1 0x0 CALLDATASIZE PUSH1 0x3 NOT ADD SLT PUSH2 0x144 JUMPI PUSH1 0x20 PUSH1 0xFF PUSH1 0x2 SLOAD AND PUSH1 0x40 MLOAD SWAP1 ISZERO ISZERO DUP2 MSTORE RETURN JUMPDEST CALLVALUE PUSH2 0x144 JUMPI PUSH1 0x0 CALLDATASIZE PUSH1 0x3 NOT ADD SLT PUSH2 0x144 JUMPI PUSH2 0x883 PUSH2 0xA59 JUMP JUMPDEST PUSH1 0x2 SLOAD PUSH1 0xFF DUP2 AND ISZERO PUSH2 0x8C2 JUMPI PUSH1 0xFF NOT AND PUSH1 0x2 SSTORE PUSH32 0x5DB9EE0A495BF2E6FF9C91A7834C1BA4FDD244A5E8AA4E537BD38AEAE4B073AA PUSH1 0x20 PUSH1 0x40 MLOAD CALLER DUP2 MSTORE LOG1 STOP JUMPDEST PUSH1 0x40 MLOAD PUSH4 0x8DFC202B PUSH1 0xE0 SHL DUP2 MSTORE PUSH1 0x4 SWAP1 REVERT JUMPDEST CALLVALUE PUSH2 0x144 JUMPI PUSH1 0x0 CALLDATASIZE PUSH1 0x3 NOT ADD SLT PUSH2 0x144 JUMPI PUSH1 0x20 PUSH1 0x40 MLOAD PUSH2 0x1F4 DUP2 MSTORE RETURN JUMPDEST CALLVALUE PUSH2 0x144 JUMPI PUSH1 0x20 CALLDATASIZE PUSH1 0x3 NOT ADD SLT PUSH2 0x144 JUMPI PUSH1 0x1 PUSH1 0x1 PUSH1 0xA0 SHL SUB PUSH2 0x912 PUSH2 0x9AE JUMP JUMPDEST AND PUSH1 0x0 MSTORE PUSH1 0x4 PUSH1 0x20 MSTORE PUSH1 0x20 PUSH1 0xFF PUSH1 0x40 PUSH1 0x0 KECCAK256 SLOAD AND PUSH1 0x40 MLOAD SWAP1 ISZERO ISZERO DUP2 MSTORE RETURN JUMPDEST CALLVALUE PUSH2 0x144 JUMPI PUSH1 0x20 CALLDATASIZE PUSH1 0x3 NOT ADD SLT PUSH2 0x144 JUMPI PUSH1 0x4 CALLDATALOAD PUSH2 0x94C PUSH2 0xA59 JUMP JUMPDEST PUSH2 0x1F4 DUP1 DUP3 GT PUSH2 0x98F JUMPI PUSH32 0xB841FAF0D1B32571F4EF966A2F35E3AE51F3CDDA45318C3DA5570A5B2AD85605 PUSH1 0x40 DUP4 PUSH1 0x3 SLOAD SWAP1 DUP1 PUSH1 0x3 SSTORE DUP3 MLOAD SWAP2 DUP3 MSTORE PUSH1 0x20 DUP3 ADD MSTORE LOG1 STOP JUMPDEST PUSH1 0x40 MLOAD PUSH4 0x58E4A913 PUSH1 0xE0 SHL DUP2 MSTORE PUSH1 0x4 DUP2 ADD SWAP3 SWAP1 SWAP3 MSTORE PUSH1 0x24 DUP3 ADD MSTORE PUSH1 0x44 SWAP1 REVERT JUMPDEST PUSH1 0x4 CALLDATALOAD SWAP1 PUSH1 0x1 PUSH1 0x1 PUSH1 0xA0 SHL SUB DUP3 AND DUP3 SUB PUSH2 0x144 JUMPI JUMP JUMPDEST SWAP1 PUSH1 0x1F DUP1 NOT SWAP2 ADD AND DUP2 ADD SWAP1 DUP2 LT PUSH8 0xFFFFFFFFFFFFFFFF DUP3 GT OR PUSH2 0x627 JUMPI PUSH1 0x40 MSTORE JUMP JUMPDEST PUSH8 0xFFFFFFFFFFFFFFFF DUP2 GT PUSH2 0x627 JUMPI PUSH1 0x5 SHL PUSH1 0x20 ADD SWAP1 JUMP JUMPDEST SWAP2 SWAP1 DUP2 LT ISZERO PUSH2 0xA0E JUMPI PUSH1 0x5 SHL ADD SWAP1 JUMP JUMPDEST PUSH4 0x4E487B71 PUSH1 0xE0 SHL PUSH1 0x0 MSTORE PUSH1 0x32 PUSH1 0x4 MSTORE PUSH1 0x24 PUSH1 0x0 REVERT JUMPDEST CALLDATALOAD PUSH1 0x1 PUSH1 0x1 PUSH1 0xA0 SHL SUB DUP2 AND DUP2 SUB PUSH2 0x144 JUMPI SWAP1 JUMP JUMPDEST DUP1 MLOAD DUP3 LT ISZERO PUSH2 0xA0E JUMPI PUSH1 0x20 SWAP2 PUSH1 0x5 SHL ADD ADD SWAP1 JUMP JUMPDEST SWAP2 SWAP1 DUP3 SUB SWAP2 DUP3 GT PUSH2 0x5B4 JUMPI JUMP JUMPDEST PUSH1 0x0 SLOAD PUSH1 0x1 PUSH1 0x1 PUSH1 0xA0 SHL SUB AND CALLER SUB PUSH2 0xA6D JUMPI JUMP JUMPDEST PUSH1 0x40 MLOAD PUSH4 0x118CDAA7 PUSH1 0xE0 SHL DUP2 MSTORE CALLER PUSH1 0x4 DUP3 ADD MSTORE PUSH1 0x24 SWAP1 REVERT JUMPDEST PUSH1 0xFF PUSH1 0x2 SLOAD AND PUSH2 0xA91 JUMPI JUMP JUMPDEST PUSH1 0x40 MLOAD PUSH4 0xD93C0665 PUSH1 0xE0 SHL DUP2 MSTORE PUSH1 0x4 SWAP1 REVERT JUMPDEST PUSH1 0x40 MLOAD PUSH4 0xA9059CBB PUSH1 0xE0 SHL PUSH1 0x20 DUP3 ADD SWAP1 DUP2 MSTORE PUSH1 0x1 PUSH1 0x1 PUSH1 0xA0 SHL SUB SWAP4 DUP5 AND PUSH1 0x24 DUP4 ADD MSTORE PUSH1 0x44 DUP1 DUP4 ADD SWAP6 SWAP1 SWAP6 MSTORE SWAP4 DUP2 MSTORE SWAP1 SWAP3 PUSH1 0x80 DUP3 ADD SWAP1 PUSH8 0xFFFFFFFFFFFFFFFF DUP3 GT DUP4 DUP4 LT OR PUSH2 0x627 JUMPI PUSH1 0x20 SWAP3 PUSH1 0x0 SWAP3 PUSH1 0x40 MSTORE MLOAD SWAP1 DUP3 DUP7 GAS CALL ISZERO PUSH2 0x240 JUMPI PUSH1 0x0 MLOAD RETURNDATASIZE PUSH2 0xB30 JUMPI POP DUP1 DUP3 AND EXTCODESIZE ISZERO JUMPDEST PUSH2 0xB16 JUMPI POP POP JUMP JUMPDEST PUSH1 0x40 MLOAD PUSH4 0x5274AFE7 PUSH1 0xE0 SHL DUP2 MSTORE SWAP2 AND PUSH1 0x4 DUP3 ADD MSTORE PUSH1 0x24 SWAP2 POP REVERT JUMPDEST PUSH1 0x1 EQ ISZERO PUSH2 0xB0E JUMP INVALID LOG2 PUSH5 0x6970667358 0x22 SLT KECCAK256 SWAP8 PUSH7 0xB541FC5F6F3EEC NOT PUSH18 0xFA9B01C2836800293034D4C46D212C6D92A0 DELEGATECALL PUSH25 0xCB64736F6C6343000818003300000000000000000000000000 "},"methodIdentifiers":{"MAX_TAX_BPS()":"2c597de9","allowedDistributors(address)":"23ec8c21","claimFromClanker(address,address[])":"c0ec9fb0","claimTaxBps()":"a107807d","owner()":"8da5cb5b","pause()":"8456cb59","paused()":"5c975abb","renounceOwnership()":"715018a6","setClaimTax(uint256)":"03d7bda7","setDistributor(address,bool)":"d59ba0df","transferOwnership(address)":"f2fde38b","treasury()":"61d027b3","unpause()":"3f4ba83a","withdrawRebateReserve(address,uint256)":"defb51bd"}}}}}